:02000004100AE0
:10440000C84A002009460A100D460A100F460A1035
:1044100011460A1013460A1015460A100000000043
:1044200000000000000000000000000017460A1015
:1044300019460A1000000000000000000000000003
:10444000000000000000000000000000000000006C
:10445000000000000000000000000000000000005C
:10446000000000000000000000000000000000004C
:10447000000000000000000000000000000000003C
:10448000000000000000000000000000000000002C
:10449000000000000000000000000000000000001C
:1044A000000000000000000000000000000000000C
:1044B00000000000000000000000000000000000FC
:1044C00000000000000000000000000000000000EC
:1044D00000000000000000000000000000000000DC
:1044E00000000000000000000000000000000000CC
:1044F00000000000000000000000000000000000BC
:1045000000000000000000000000000000000000AB
:10451000000000000000000000000000000000009B
:10452000000000000000000000000000000000008B
:10453000000000000000000000000000000000007B
:10454000000000000000000000000000000000006B
:10455000000000000000000000000000000000005B
:1045600000000000000000000000000000F002F861
:1045700000F03AF80AA090E8000C82448344AAF1C3
:104580000107DA4501D100F02FF8AFF2090EBAE8C1
:104590000F0013F0010F18BFFB1A43F00103184777
:1045A000647F0000847F0000103A24BF78C878C17F
:1045B000FAD8520724BF30C830C144BF04680C6029
:1045C000704700000023002400250026103A28BF71
:1045D00078C1FBD8520728BF30C148BF0B60704775
:1045E0001FB51FBD10B510BD00F029F81146FFF72B
:1045F000F7FF06F0C3FE00F047F803B4FFF7F2FF41
:1046000003BC00F04FF8000008480047FEE7FEE753
:10461000FEE7FEE7FEE7FEE7FEE7FEE7FEE7000057
:1046200003480449024A034B704700006D450A10D5
:10463000C84A0020C84A0020704770477047754636
:1046400000F02CF8AE4605006946534620F00700FE
:10465000854618B020B5FFF7E3FFBDE820404FF0D6
:1046600000064FF000074FF000084FF0000B21F05C
:104670000701AC46ACE8C009ACE8C009ACE8C00929
:10468000ACE8C0098D46704710B50446AFF3008012
:104690002046BDE81040FFF7B0BF0000004870475B
:1046A000684A002001491820ABBEFEE72600020040
:1046B0007047000010B503460A46002100BF38E0ED
:1046C00001EB81041E480068083050F8240098422D
:1046D0002ED16AB301EB810419480068083000EB61
:1046E0008400007B20B301EB81041548006808308A
:1046F00050F82400106001EB810411480068083074
:1047000000EB8400806840B101EB81040C48006834
:10471000083000EB84000069906001EB81040848D8
:104720000068083000EB840080685060002010BDF5
:10473000491C0348006800688842C1D80148F6E770
:1047400004040020031004002DE9F04106460F4642
:104750001546002400BF3CE004EB840120480068BB
:10476000083050F82100B04232D185B304EB840107
:104770001B480068083000EB8100007B38B304EB75
:10478000840117480068083000EB8100806890B110
:1047900004EB840312480068083000EB830004EB4C
:1047A000840382680E480068083000EB83000169CA
:1047B000284606F081F904EB8401094800680830B6
:1047C00000EB8100806838600020BDE8F081FFE7E1
:1047D000641C034800680068A042BDD80148F4E7A3
:1047E000040400200310040070B5002400252848AC
:1047F000006800284AD043F6084200212448006897
:1048000006F068F94FF40C6222492148006808302C
:1048100006F052F900BF34E004EB84011C48006844
:10482000083050F8210058B304EB840118480068A0
:10483000083000EB810040682844B0F5205F01D9C2
:10484000154870BD124800680068401C104909688E
:1048500008600F48006841F208410844411904EB20
:1048600084020B480068083000EB8200016104EB11
:10487000840107480068083000EB81004068054467
:10488000641CFF2CC8D90248006845600020D8E7A6
:104890000404002080BB0A10011004002DE9F0413F
:1048A00005460024002600BF66E004EB840136487C
:1048B0000068083050F82100296888425BD1A86858
:1048C000D0B304EB840130480068083000EB81006D
:1048D000007B38B1286801F0A7FA064616B12B48CC
:1048E000BDE8F081012104EB84022748006808300C
:1048F00000EB8200017304EB840C234B6F681B6890
:10490000083303EB8C035B689F4201D26B6807E0BE
:1049100004EB84071C4B1B68083303EB87035B68BD
:104920001A4604EB8407184BA9681B68083303EB8D
:104930008703186906F0C0F804EB8402124869681E
:104940000068083000EB82004068814201D268684C
:1049500007E004EB84010C480068083000EB81009C
:10496000406804EB840208490968083101EB8201C0
:1049700088600020B4E7641C034800680068A04217
:1049800093D80248C01EABE70404002005100400C1
:104990002DE9F04107460D4616460024A04600BF0B
:1049A00064E004EB840135480068083050F82100C9
:1049B000B8425AD1DEB304EB8401304800680830B5
:1049C00000EB8100007B48B1384601F02DFA8046AB
:1049D000B8F1000F02D02A48BDE8F081012104EBB4
:1049E000840226480068083000EB8200017304EB63
:1049F000840322490968083101EB83014968A9420F
:104A000001D9294607E004EB84031C4909680831F1
:104A100001EB830149680A4604EB840317490968DE
:104A2000083101EB83010869314606F045F804EBD3
:104A3000840112480068083000EB81004068A842F9
:104A400001D9284607E004EB84010C4800680830CF
:104A500000EB8100406804EB8402084909680831D2
:104A600001EB820188600020B6E7641C03480068FF
:104A70000068A04295D80248C01EADE7040400209B
:104A8000051004000246002100BF15E001EB810380
:104A90000D480068083050F8230090420BD101EB1C
:104AA000810309480068083000EB8300007B08B1EF
:104AB0000020704705E0491C0348006800688842F0
:104AC000E4D800BF0120F4E70404002002460021DE
:104AD00000BF15E001EB81030D480068083050F875
:104AE000230090420BD101EB810309480068083094
:104AF00000EB8300007B08B10120704705E0491CF2
:104B00000348006800688842E4D800BF0020F4E74A
:104B10000404002010B50446204605F0A7F910BD96
:104B200070B50546002600240BE0284605F09EF9E6
:104B3000064606B106E04FF6FF70844200D100241D
:104B4000641CF2E700BF002070BD00002DE9FC5F8F
:104B500005460C460027B846B946BA46002600204E
:104B60000090A01E285C8DF80400601E285C8DF863
:104B700005009DF805009DF8041000EB012BBBF526
:104B8000104F00D02B4E4EB9284605F0D1FE0090B4
:104B9000A01E0099884201D0264E761C46B9A21E5E
:104BA0002946002004F0F5F810B92348BDE8FC9F21
:104BB00026B9A11E284603F0F3FE06466F212846BB
:104BC00005F0CCFC07461FB1384605F099FD10B939
:104BD0001848001FEAE7A521284605F0BFFC8046DB
:104BE000B8F1000F03D0404605F08AFD10B9114816
:104BF000C01EDBE78421284605F0B0FC8146B9F1F0
:104C0000000F03D0484605F07BFD10B90948801E0F
:104C1000CCE75021284605F0A1FC8246BAF1000FEE
:104C200003D0504605F06CFD10B90248401EBDE7A8
:104C30003046BBE706200400084304002DE9F0439A
:104C4000A3B007460D46002022900026002481468E
:104C500080463878802846D1384605F069FE229093
:104C6000A81E2299884205D004F038FB584823B08A
:104C7000BDE8F083384605F043FD2290384605F044
:104C800069FE064622980B2803D204F027FB504801
:104C9000EDE722982B2803D904F020FB4C48E6E7E7
:104CA0003246012149F62770FFF772FE0446721C56
:104CB000022149F63670FFF76BFE0446F21C08210C
:104CC00049F62670FFF764FE044622980B287DD92A
:104CD0002298A0F10B0106F10B0249F61070FFF7C4
:104CE00057FE044672E0387877286AD1384605F0D6
:104CF0001FFE2290A81E2299884205D04FF001097C
:104D000004F0ECFA3248B2E74CB9A91E384605F077
:104D100051FB20B904F0E2FA2D48401EA7E724B960
:104D2000A91E384603F00AFE044614B900F060FFDD
:104D3000044644BB8022002102A805F0CBFE02AA53
:104D400022A949F62770FFF7FFFC04469DF808806A
:104D500008F0C00040B9002000F082FE04F06CFBB7
:104D60001B4C241F204682E76CB901F03BFE8028D3
:104D700009D108F0C000402805D104F05DFB144CB7
:104D8000E41E204673E7BCB90020019001AA22A9C5
:104D90001048FFF7D9FC9DF8040060B149F64B704C
:104DA000FFF770FE044614B1094CA41E03E0A91ECF
:104DB000384602F04DFD00BF44B104F08FFA2046A2
:104DC00055E704F08BFA0248401C50E700204EE7FC
:104DD000094304000B829F0010B588B00024002016
:104DE00007900822002105A805F074FE0DF11502B8
:104DF00007A99A20FFF7A8FC04460822002103A86F
:104E000005F068FE0DF10D0207A945F62470FFF7C5
:104E10009BFC04468CBB9DF80D00502803DA202033
:104E20008DF80C0002E019208DF80C009DF815009B
:104E3000502803DA20208DF8140002E019208DF8A4
:104E4000140003A806F03CF804463CB104F056FBFD
:104E5000002003F0F1FD2A4808B010BD042203A988
:104E600005A805F01BFE002807DD264800684078ED
:104E700040F040002349096848700822002101A839
:104E800005F028FE0DF1050207A945F62570FFF78C
:104E90005BFC04468CBB9DF80500502803DA2020FB
:104EA0008DF8040002E019208DF804009DF815002B
:104EB000502803DA20208DF8140002E019208DF824
:104EC000140001A805F0FCFF04463CB104F016FBF9
:104ED000002003F0B1FD0A48401CBDE7042201A9EF
:104EE00005A805F0DBFD002807DA064800684078D1
:104EF00040F020000349096848700020ACE700003A
:104F0000053104001C040020F0B587B00024002007
:104F10000590002600270222002106A805F0DAFDF0
:104F200006AA05A949F60770FFF70EFC0446002CF7
:104F300070D10822002103A805F0CCFD03AA05A921
:104F400049F63570FFF700FC04469DF80C5005F05B
:104F5000F000102806D19DF8180000F0020038B9C2
:104F6000012705E09DF8180000F0010000B90127B5
:104F70000222002102A805F0ADFD02AA05A949F60A
:104F80001A70FFF7E1FB044614B1364807B0F0BDD4
:104F90000222002101A805F09DFD01AA05A945F600
:104FA0002870FFF7D1FB04460822002103A805F072
:104FB00091FD03AA05A99C20FFF7C6FB04469DF8B6
:104FC0000C6002A901A8059A05F068FDE0B95EB180
:104FD000012E02D0092E15D10DE09DF8180000F029
:104FE000800000B901270EE09DF8180000F02800AD
:104FF00000B9012707E09DF8190000F0800000B912
:10500000012700BF00BF22E066B1012E03D0092EA8
:105010001BD113E024E09DF8180000F0400000B917
:10502000012713E09DF8180000F0100028B99DF842
:10503000180000F0040000B9012707E09DF81900EE
:1050400000F0400000B9012700E000BF00BF3FB101
:1050500005480068407840F010000349096848702E
:10506000002093E7013104001C04002070B598B0C3
:105070000024002017900025002604F065FD0D2275
:10508000002113A805F026FD13AA17A949F60270FE
:10509000FFF75AFB044614B9179800B101250D22F9
:1050A000002107A805F016FD07AA17A96C48FFF70D
:1050B0004BFB04463CB9062207A913A805F0EEFCF9
:1050C000002800DB0126002003F00AFD0D2200214C
:1050D0000FA805F0FFFC002017900FAA17A9604841
:1050E000801CFFF731FB0446B4B91798A0B1062223
:1050F0005CA10FA805F0D2FC30B106220FA913A8BD
:1051000005F0CCFC002803DD012003F0E9FC3AE0C7
:10511000002003F0E5FC36E000200390179004AA7D
:1051200017A949F61B70FFF70FFB044634BB17980D
:1051300020B39DF8100000069DF8111000EB01400F
:105140009DF8121000EB01209DF813100844039005
:1051500003AA05210DF13D0005F044F8062241A106
:105160000FA805F09BFC30B106220FA913A805F08B
:1051700095FC002803DD012003F0B2FC02E00020D2
:1051800003F0AEFC00BF002003F0A0FC0D220021C4
:105190000BA805F09FFC002017900BAA17A9304818
:1051A000401CFFF7D1FA044684B9179870B1062263
:1051B0000BA913A805F072FC002803DB012003F003
:1051C00085FC17E0002003F081FC13E025B10622E6
:1051D00026A10BA805F070FC06220BA913A805F068
:1051E0005DFC002803DB012003F070FC02E00020DE
:1051F00003F06CFC8EB30522002102A805F06AFCC6
:105200000020179002AA17A949F66E70FFF79CFAC2
:105210000422002101A805F05DFC01AA17A949F6A6
:105220007070FFF791FA044601F07CF901280FD164
:105230009DF8080000F0800050B124B99DF80400EA
:1052400000F0200020B104F0B7FB0A4818B070BD90
:1052500004F054F90748401CF8E7FFE70020F5E7A1
:1052600008829F00000000000000000099999999B1
:105270009999000007310400F0B587B00020049030
:105280000024002603900822002105A805F022FC36
:1052900005AA04A949F62770FFF756FA06460EB983
:1052A000049820B904F02AF9774807B0F0BD9DF8BA
:1052B0001450284600F03AFC03AA04A97348FFF7EB
:1052C00043FA05F0C000C02804D104F017F96E4875
:1052D000401EEAE705F0400000286FD0002401F0EE
:1052E00081FB40285AD101F01DF9012801D0601C32
:1052F000C4B20C220021684605F0ECFB6946634805
:105300003E30FFF7D7F906465EB9029800780128CB
:1053100007D15F480068007800F0800008B1601C89
:10532000C4B20C220021684605F0D4FB69465748F8
:105330003D30FFF7BFF90646C6B90298007801284C
:1053400014D153480068007800F0040058B9504860
:105350000068007800F0400028B94D4800680078E7
:1053600000F00800E0B1601CC4B219E09DF80C0028
:10537000B0B147480068007800F0040058B94448CC
:105380000068007800F0400028B9414800680078C3
:1053900000F0080020B1601CC4B201E0601CC4B27F
:1053A0002CB1002000F05CFB04F046F869E04020DE
:1053B00000F056FB03F0CAFF63E0FFE705F0800052
:1053C000002859D09DF80C0060B131480068007881
:1053D00000F0040030B1002000F042FB04F02CF893
:1053E000002062E701F084F8A8B101F0FBFA402840
:1053F00003D001F0F7FA802807D1402000F030FBFD
:1054000001F052FF03F0A2FF3BE0002000F028FB78
:1054100004F012F835E000270822002105A805F065
:1054200059FB05AA04A949F63570FFF78DF9064620
:105430009DF8147007F00F07032F01D0062F06D137
:10544000002000F00DFB03F0F7FF00202DE700BF68
:1054500001F0C8FA402803D001F0C4FA802805D131
:10546000802000F0FDFA04F093F904E0002000F041
:10547000F7FA03F0E1FF04E0002000F0F1FA03F096
:10548000DBFF002011E700000C4304000B829F00AB
:105490001C040020F0B504460D46002102F108016D
:1054A000D7180CE00E7820788006B0EB866F05D117
:1054B00008782070487828700120F0BD891CB94216
:1054C000F0D30020F9E770B504460025607800F0BD
:1054D000400020B1204601F0AFFF054603E0204622
:1054E00000F01AFA0546284670BD000030B5D3B06A
:1054F000054600240020069005900490287800F0CE
:105500001000002870D00522002102A805F0E2FA60
:1055100005220021684605F0DDFA4FF4967200215D
:1055200007A805F0D7FA07AA06A98E20FFF70CF9FD
:10553000044614B90698082817D83C480068007833
:1055400040F0200039490968087039A2032149F662
:105550003470FFF71DFA002003F05AFA4FF4605040
:1055600003F06AFA002053B030BD1F20049007AA50
:1055700005A904A8069BFFF78DFF0446012C09D15D
:10558000042207A902A805F097FA042208A9684690
:1055900005F092FA012C28D19DF814309DF81020C6
:1055A000694602A805F0F0FBF8B90422002152A8D0
:1055B00005F090FA9DF810008DF848019DF8140050
:1055C0008DF8490102208DF84A0152AA032149F6BB
:1055D0003470FFF7DDF9002003F01AFA4FF4605041
:1055E00003F02AFA0020BEE711E00422002152A8AD
:1055F00005F070FA52AA07A8069900F01BF80446B5
:1056000052AA032149F63470FFF7C2F90CE008A250
:10561000032149F63470FFF7BBF9002003F0F8F9D5
:105620004FF4605003F008FA20469CE71C04002069
:105630003F0000002DE9FF5F07468A46144600261A
:10564000B1460422394602A805F036FA0422391D73
:10565000684605F031FA07F1080907EB0A0B71E01B
:1056600099F8005099F8018043462A46694602A8F5
:1056700005F08AFB0646002E61D1FF20A070284667
:1056800005F09EFA0646002E51D14146284605F007
:10569000BBFA0646002E52D105F03F0030B101287A
:1056A00020D0022810D01E2835D12EE0002003F093
:1056B000AFF90120A0702F480068807840F080008A
:1056C0002C49096888702CE0202003F0A1F9002003
:1056D000A07028480068807840F0040025490968D7
:1056E00088701EE0204601F009FE0646257084F809
:1056F00001804CF20100864203D109F10209002623
:1057000020E0304604B0BDE8F09F102003F080F99F
:105710000020A07005E0F02003F07AF90020A070CE
:1057200000BF00BF257084F801800020EAE711481F
:105730000068807840F040000E490968887009F1DF
:10574000020900BFD9458BD38EB10A480068807822
:1057500040F08000074909688870032206A12046AE
:1057600005F0AAF900F090F806463046CAE7002096
:10577000C8E700001C0400203F0001007CB505467E
:105780000E460020009000240322002101A805F00D
:10579000A1F901AA69468220FEF7D6FF044601F06E
:1057A0006FF878B1012003F04FF99DF8040000F084
:1057B000100018B100F01CF804460AE000F064F88C
:1057C000044606E0002003F03FF901A8FFF77BFE46
:1057D00004460648844201D100207CBD1CB94FF428
:1057E000605003F029F92046F7E700000132040079
:1057F00010B5D0B00024002004900522002102A89A
:1058000005F068F905220021684605F063F94FF4B8
:105810009672002105A805F05DF905AA04A98E205D
:10582000FEF792FF0446049800F0010020B103F057
:1058300065FE124850B010BD14B90498082816D857
:105840000F480068007840F020000D490968087092
:105850000CA2032149F63470FFF79AF8002003F0F8
:10586000D7F84FF4605003F0E7F80020E2E705A80E
:10587000049903F02FFA04462046DBE703320400C4
:105880001C0400203F0000003EB5002400200290D0
:105890001D480068807840F080001B4909688870C6
:1058A0001AA2032149F63470FFF772F800F03AFEAD
:1058B000012827D10422002101A805F00BF901AA33
:1058C00002A949F67070FEF73FFF044624B99DF81F
:1058D000040000F02000A8B101220021684605F074
:1058E000F9F86A4602A90A48FEF72EFF04464CB9A9
:1058F0009DF8000030B104F05FF8002003F09CF840
:1059000004483EBD0020FCE71C0400203F000000CE
:1059100018879F000232040030B5D3B0054600243A
:105920000020069005900490287800F0100078B9C7
:1059300049A2032149F63470FFF72AF8002003F04A
:1059400067F84FF4605003F077F8002053B030BD93
:105950000522002102A805F0BDF8052200216846B5
:1059600005F0B8F84FF49672002107A805F0B2F8D8
:1059700007AA06A98E20FEF7E7FE044614B906988A
:10598000082816D835480068007840F020003349D0
:105990000968087030A2032149F63470FEF7F8FF59
:1059A000002003F035F84FF4605003F045F8002074
:1059B000CCE71F20049007AA05A904A8069BFFF7BF
:1059C00069FD0446012C09D1042207A902A805F0AB
:1059D00073F8042208A9684605F06EF8012C27D157
:1059E0009DF814309DF81020694602A805F0CCF906
:1059F000F0B90422002152A805F06CF89DF81000BF
:105A00008DF848019DF814008DF8490102208DF8A9
:105A10004A0152AA032149F63470FEF7B9FF00206B
:105A200002F0F6FF4FF4605003F006F800208DE717
:105A30000422002152A805F04DF852AA07A80699A1
:105A4000FFF7F8FD044652AA032149F63470FEF729
:105A50009FFF20467AE700003F0000001C04002062
:105A600010B58AB00446082200212D48006805F0D0
:105A700031F8F0202A4909680870294909684870F6
:105A800027490968887000F02BFD25490968C8700E
:105A9000402C01D0802C04D1A02021490968087134
:105AA00003E080201E4909680871F0201C4909683C
:105AB0004871FF201A49096888710020184909684F
:105AC000C871162200211748006805F003F8172056
:105AD00014490968087004201249096848700322B3
:105AE00011A110480068801C04F0E6FF002001901E
:105AF0002022002102A804F0EDFF02AA01A945F628
:105B00002D70FEF721FE02A90648019A0068401D8B
:105B100004F0D2FF01F058FB00200AB010BD0000D5
:105B20001004002014040020000003003EB50446C9
:105B300000250C220021684604F0CCFF69462A4863
:105B4000FEF7B8FD0546002D4CD1029800780028DC
:105B500048D004F0C00068B924480068007840F0DC
:105B60000400224909680870204805210268952030
:105B7000FEF70EFF04F0400010B904F0800088B377
:105B800000F032FEB0B9012001F084FC05465DB1A1
:105B900001F054FE05463DB114480068007840F01D
:105BA0000400124909680870104805210268952010
:105BB000FEF7EEFE0D480068007800F0040088B99A
:105BC00001F0FCFC05466DB108480068007840F023
:105BD00004000649096808700448052102689520F8
:105BE000FEF7D6FE00203EBD0B829F001C04002065
:105BF000FEB5002400250026694649F62770FEF709
:105C000059FD04460CB9019808B91648FEBD029822
:105C100008B102980578694649F63670FEF74AFDE4
:105C200004460CB9019808B90E48EFE70C22002190
:105C3000684604F04FFF69460B48FEF73BFD0446FB
:105C400014B90298007850B9694649F62670FEF7F3
:105C500031FD04460CB9019808B90248D6E7002086
:105C6000D4E70000004304000B829F00FEB500252E
:105C70000026002469469420FEF71CFD064616B94E
:105C8000029D019F01E01F48FEBD26B907F00300F9
:105C900008B11C4E761C002E32D12EE0285D05EB9B
:105CA000040C9CF8011005EB040C9CF8022005EB99
:105CB000040C9CF8033000F0070CBCF1000F02D07C
:105CC000104E761C1BE0C01008B11E2801DD0E4EE0
:105CD00015E011B90B4EFD3611E0914202DD094E7F
:105CE000FE360CE0A2EB010C0CF1010C9C4502DA33
:105CF000044EFF3603E0241D00BFBC42CED300BFDC
:105D00003046C1E7062504000527040070B586B0BB
:105D100004460E460020039000250822002101A819
:105D200004F0D8FE0822002104A804F0D3FE0DF1EF
:105D3000110203A99A20FEF707FD05466078502856
:105D400003DA20208DF8040002E019208DF8040009
:105D500060788DF8050020788DF806009DF8110018
:105D6000502803DA20208DF8100002E019208DF869
:105D70001000032201A904A804F090FE002802DD0F
:105D8000024806B070BD0020FBE70000324404006A
:105D900030B502460B460021632400BF15E001EB3D
:105DA00081000C4D55F8200098420DD101EB810087
:105DB00005EB8000406800F07F401040904201D128
:105DC000002030BD0120FCE7491CA142E7D30020A0
:105DD000F7E70000C4B30A103EB5002400F0A2FBB0
:105DE00002281BD1694645F62570FEF763FC044680
:105DF0002CB9694645F62070FEF75CFC044624B9D0
:105E000069465720FEF756FC044624B96946044803
:105E1000FEF750FC04460CB102483EBD2046FCE7AC
:105E200017829F000431040010B50246002163234D
:105E300000BF13E001EB81000A4C54F820009042AF
:105E40000BD101EB810004EB8000808800F400702E
:105E5000B0F5007F01D1012010BD491C9942E9D362
:105E60000020F9E7C4B30A1030B503460A46002102
:105E7000632400BF19E001EB81000E4D55F82000AE
:105E8000984211D101EB810005EB8000006990423E
:105E900008D301EB810005EB8000C068904201D877
:105EA000002030BD0120FCE7491CA142E3D30020C3
:105EB000F7E70000C4B30A1000207047FEB506469D
:105EC0000D460027002400231A460C49304604F0F2
:105ED00095FD00BF0FE00A4951F824006946FEF71E
:105EE000E9FB074637B93046DDE90132009904F095
:105EF00007FA2860641C062CEDD3FEBD0581FF0067
:105F0000ECC40A10FEB506460D4600270024002307
:105F10001A460C49304604F071FD00BF0FE00A49F3
:105F200051F824006946FEF7C5FB074637B93046ED
:105F3000DDE90132009904F0E3F92860641C2B2CA0
:105F4000EDD3FEBD0581FF0040C40A102DE9F041EC
:105F500006460F4690460024002500BF0FE0305D46
:105F600000F0F000F02801D165000AE0305D00F09B
:105F70000F000F2802D16000451C02E0641CBC42E7
:105F8000EDD300BF05B97D006A084146304604F0F4
:105F900085FD10B10A48BDE8F08105F0010068B147
:105FA00006EB5500007800F0F00008EB5501097889
:105FB00001F0F001884201D00148ECE70020EAE757
:105FC000314404002DE9F041ADF51C7D0020059021
:105FD000049000260024002501904FF496720021C1
:105FE00051A804F077FD51AA04A98C20FEF7ACFB60
:105FF000064600F09BFCC0B2019001F021F800F0D1
:10600000F1FC20B954A202218A20FEF7C1FC00F065
:10601000E9FC402804D151A202218A20FEF7B8FCF5
:106020004F48052102689520FEF7B2FC4FF49672A6
:10603000002106A804F04EFD05AB06AA51A804995C
:1060400000F0A6F906AA47480599FEF7A1FC4FF40F
:106050009672002151A804F03DFD51AC80202070C3
:10606000AE20607000F0BEFCA0709DF8040090B1FE
:1060700000F0B8FC78B13A480068007800F00400FD
:1060800048B9A07840F01000A07001AA012135485D
:10609000801FFEF77DFC0020E070059820710598B8
:1060A00020B106A9601D059A04F006FD059800F1CF
:1060B000060851AD03AB2A464146204603F0E0FCFA
:1060C00006466EB12848864206D103F081FA304672
:1060D0000DF51C7DBDE8F08103F010FA3046F7E7BE
:1060E0000398801E285C8DF808000398401E285CE9
:1060F0008DF809009DF809009DF8081000EB0127B4
:1061000046F68410874215D100F0FAFB30B103F057
:10611000F5F9002002F090FC1448D9E703F0ACFA3E
:106120000220134909684870002002F085FC0F48DE
:106130000B30CDE7B7F5104F07D003F0DFF90020A3
:1061400002F07AFC0948401CC2E728460399FEF792
:1061500075FD06463046BBE75A3100005931000054
:106160001C04002011829F0001110400034304005D
:106170001804002070B505460E460024FFF722FFE4
:1061800004464CB10A48844201D1002070BD002071
:1061900002F052FC2046F9E7FFF76EF8044614B906
:1061A00001F024FC0446002002F046FC2046EDE706
:1061B0000E4304002DE9FF5F044688464FF00009B6
:1061C000002003900025002683462078802837D1C0
:1061D000204604F0BFFB0646204604F091FA0390E7
:1061E0000398801E00F0030040B103F087F90020FF
:1061F00002F022FC634804B0BDE8F09F0398022837
:1062000017D9324602218220FEF7C2FB0398811E75
:10621000B21C9420FEF7BCFB4FF0010B03220021BF
:1062200002A804F057FC0222314602A804F044FC04
:1062300050E003F063F9002002F0FEFB5148DAE77A
:10624000207877283FD1204604F072FB8246A8F1DF
:106250000200504506D003F051F9002002F0ECFB9B
:106260004848C8E7204604F0EDF9054626E02DB37E
:10627000284604F01FFB0746284604F041FA039025
:10628000284604F067FB0646822F0ED103980228A9
:106290000BD14FF0010B0322002102A804F01AFCDD
:1062A000314602A8039A04F007FC324638460399A7
:1062B000FEF76EFB284604F0C9FA054615B1BAF19F
:1062C000000FD4D106E003F019F9002002F0B4FB6E
:1062D000002090E7BBF1000F07D103F00FF9002079
:1062E00002F0AAFB2748801C85E7052200216846AA
:1062F00004F0F0FB6A4603A949F66E70FEF724FA33
:1063000081469DF8090000F0800040B19DF8000032
:1063100000F0100018B1012002F084FB02E002201E
:1063200002F080FBFFF7A2FC8146B9F1000F06D016
:1063300003F0E4F8002002F07FFB13485BE79DF8D0
:10634000090000F04000D8B10422002101A804F0A7
:10635000C1FB01AA03A949F67170FEF7F5F9814660
:10636000B9F1000F0BD19DF80600032807D10748AB
:106370000068807840F0200004490968887000BFF8
:10638000002038E703250400072604001C04002031
:106390002DE9FF4FADF5037D804689461546002463
:1063A000FF204090002790E008EB070081AA82A917
:1063B00003F004FE0646002E71D04FF0000A8298CA
:1063C000FF2803D2829800F0200030B98298FF287D
:1063D00009D9829800F4005028B128190021819A27
:1063E00004F078FB6BE041AA40A98298FEF7ACF973
:1063F00000285FD1834640998198884205D12819A9
:1064000041A9409A04F058FB53E040998198884292
:1064100039D94FF480720021684604F05BFB829802
:1064200000F0C6FA8246BAF1010F03D0BAF1020FAA
:106430001DD115E04FF480720021684604F04AFB3C
:1064400040998198A0EB010B0DEB0B0041A9409AFC
:1064500004F032FB28196946819A04F02DFB11E003
:106460004FF48072FF21684604F034FB00BF41A95D
:106470006846409A04F020FB28196946819A04F086
:106480001BFB00BF15E0829800F092FA8246BAF139
:10649000010F05D181994098A0EB010B01E011E0BB
:1064A00000BF00BF41AA02EB0B012819819A04F03A
:1064B00003FB04E028190021819A04F00BFB81986A
:1064C000044401E0002403E037444F45FFF46CAF7F
:1064D00000BF8698046020460DF5077DBDE8F08F6B
:1064E0000248006890F84704704700000C04002040
:1064F0003EB500240020029008220021684604F0E6
:10650000E9FA6A4602A90648FEF71EF9044624B9CC
:106510009DF80000012800D13EBD0020FCE70000EE
:1065200041829F000248006890F83F0470470000D5
:106530000C04002001480068006870470C0400202B
:10654000FEB5002601240025694645F63670FEF7A3
:10655000B1F806464EB900BF03E004EB84004400E6
:106560006D1C02980078A842F7DC2046FEBD0000B2
:106570002DE9F04186B000260024A046002564489D
:10658000006800F104084FF480620021404604F0E6
:10659000A1FA00231A464FF4FE41404604F02EFAB9
:1065A000D4208DF81400012305AA4FF45F41404622
:1065B00003F0A6FE02A98420FEF77CF8044634B955
:1065C00049F606714046DDE9033203F099FE02A95F
:1065D0008F20FEF76FF804462CB98F214046DDE985
:1065E000033203F08DFE02A95720FEF763F804463C
:1065F0002CB957214046DDE9033203F081FE02A9A0
:1066000045F63470FEF756F8044634B945F6347151
:106610004046DDE9033203F073FE02A945F624701B
:10662000FEF748F8044634B945F624714046DDE9E2
:10663000033203F065FE02A95020FEF73BF8044642
:106640002CB950214046DDE9033203F059FE02A97E
:1066500045F62070FEF72EF8044634B945F6207151
:106660004046DDE9033203F04BFE02A945F62870EF
:10667000FEF720F8044634B945F628714046DDE9B6
:10668000033203F03DFE02A98220FEF713F8044610
:106690002CB982214046DDE9033203F031FE01A925
:1066A000404604F0D7FD00254FF4FE41404603F07C
:1066B00055FF064626B3304603F0C4FF07461CE0EC
:1066C00002A9384600F05CF998B902A807C8FEF79D
:1066D0005FF904460F490298884202D10CB9681C40
:1066E000C5B20C49491C0298884202D10CB9A81CB9
:1066F000C5B2304604F05EF80746002FE0D100BF77
:10670000032D03D0044806B0BDE8F0810020FAE76D
:106710000C0400200182DF00014404002DE9F04F49
:10672000CFB005460E469046002400270020029078
:10673000009003AC03AF4FF496720021204604F0A2
:10674000C9F94FF496720021384604F0C3F980204D
:106750002070CA206070280AA070E57000202071A7
:106760004FF0050B4EAB3A465946204603F088F9E8
:106770000290029818B11A484FB0BDE8F08F4E98B9
:10678000801E385C8DF804004E98401E385C8DF8F1
:1067900005009DF805009DF8041000EB012ABAF5EC
:1067A000104F18D1384604F085F881467EB138463E
:1067B00003F0A6FF3060B8F1000F08D0384604F0AF
:1067C000C9F8009032684046009904F075F9A9456F
:1067D00004D00448D0E70348401ECDE70020CBE7B3
:1067E00002270400022804003EB500240C220021E8
:1067F000684604F06FF969460548FDF75BFF0446FB
:1068000024B902980078012800D13EBD0020FCE7A1
:1068100040829F003EB50020019000240422002108
:10682000684604F057F96A4601A949F63370FDF746
:106830008BFF04460222002102A804F04BF902AAB1
:1068400001A98220FDF780FF0446BCB99DF808002D
:1068500000F0010030B19DF8020000F0080008B11E
:1068600080203EBD9DF8080000F0400030B19DF84A
:10687000020000F0800008B12020F2E70020F0E7DD
:106880000248006890F84E08704700000C04002091
:106890000248006890F84D08704700000C04002082
:1068A00010B58AB00024002001900D22002106A816
:1068B00004F010F906AA01A949F60270FDF744FF99
:1068C00004460D22002102A804F004F900200190E2
:1068D00002AA01A90948FDF737FF04465CB90198EF
:1068E00048B1062202A906A804F0D8F8002802DB65
:1068F00001200AB010BD0020FBE7000009829F00C4
:106900003EB500240C220021684604F0E3F86946F5
:106910000548FDF7CFFE044624B90298007808B177
:1069200001203EBD0020FCE701839F003EB500240E
:1069300000200190002504220021684604F0CAF8D6
:106940006A4601A949F63370FDF7FEFE05460222AC
:10695000002102A804F0BEF802AA01A98220FDF7D6
:10696000F3FE054655B99DF8080000F0010028B176
:106970009DF8020000F0080000B1012420463EBD51
:1069800070B505460C46284603F094FF2060206849
:1069900048B1284603F0B4FE6060284603F0DAFFF1
:1069A000A060002070BD0148FCE700000117040052
:1069B00010B502460021632300BF0DE001EB81000A
:1069C000074C54F82000904205D101EB810004EB04
:1069D0008000806810BD491C9942EFD30020F9E780
:1069E000C4B30A100248006890F8400470470000E1
:1069F0000C0400202DE9FC4780460C4600250026AB
:106A0000A9464FF48062002126480068001D04F06A
:106A100061F82448006800F1040900231A464FF485
:106A2000FE41484603F0EAFF0090D5208DF80400AF
:106A3000012301AA4FF45F41484603F061FC009036
:106A4000E0B28DF80400012301AA1749484603F07B
:106A500057FC00906946484604F0FCFB0546FDB92A
:106A600049F63771484603F079FD0646AEB1304627
:106A700003F070FF8246304603F042FE0746BC42F8
:106A800005D222465146404604F016F804E03A4644
:106A90005146404604F010F802E00448BDE8FC8787
:106AA0002846FBE70C04002016829F0005300400F6
:106AB00070B588B005460E4614462022002168466F
:106AC00004F008F86A463146284603F0EBFB14222E
:106AD0002146684603F0E2FF10B1024808B070BDDD
:106AE0000020FBE7184404002DE9FC4704460D464E
:106AF00090460026B1464FF480620021234800688A
:106B0000001D03F0E7FF2148006800F1040900239D
:106B10001A464FF4FE41484603F070FF0090E9200A
:106B20008DF80400012301AA4FF45F41484603F0A9
:106B3000E7FB00900523224649F60671484603F01C
:106B4000DFFB009001232A468F21484603F0D8FB43
:106B50000090032342460E49484603F0D1FB0090C3
:106B60006946484604F076FB0949491C484603F04B
:106B7000F5FC064646B1304603F0ECFE074617B179
:106B80003878BDE8FC8700BF0020FAE70C0400203D
:106B90000881DF0010B524482449086024482549AD
:106BA00008602548254908602548264908600930BD
:106BB000254908601730254908600822002121482E
:106BC000006803F087FF162200211F48006803F0C9
:106BD00081FF162200211D48006803F07BFF06227A
:106BE00000211748393003F075FF4FF4806200210F
:106BF0001348403003F06EFF00200D49C1F84808EB
:106C000081F84004F02081F84704002081F84D0805
:106C100081F84E0801F241400D490860FDF7E4FD9E
:106C200003F01CF910BD00002C0400200404002017
:106C3000984000200C04002034400020080400206C
:106C4000A044002010040020140400201804002098
:106C50001C0400202DE9FC5F07460024A046002507
:106C6000002647F61471384603F078FC0446E4B178
:106C7000204603F0E7FC054615E0284603F01AFE1F
:106C80008146284603F03CFD8246284603F062FE1A
:106C900083465A4651464846FDF77AFE80462046CE
:106CA00003F088FD0546002DE7D147F611713846FF
:106CB00003F054FC0446ECB1204603F0C3FC054647
:106CC00015E0284603F0F6FD8146284603F018FD3E
:106CD0008246284603F03EFE83465A4651464846C1
:106CE000FDF756FE8046204603F064FD0546002D64
:106CF000E7D102E01548BDE8FC9F47F6127138461F
:106D000003F02CFC0446F4B1204603F023FE01906E
:106D1000204603F0F5FC009001460D48019AFDF76E
:106D200037FE80468421204603F018FC064646B113
:106D3000304603F00FFE8346304603F0E1FC824606
:106D400001E00448D7E74046D5E7000000150400FD
:106D500001829F00012004002DE9F04FADF5257D53
:106D600000250020A490A390A290A090A1909F90B5
:106D70000024002681469B9082460027834601908E
:106D80008046A4AAA3A949F66D70FDF7DDFC9DF825
:106D9000900200F0F7008DF89002A0AAA3A949F68E
:106DA0006E70FDF7D1FC00208DF88202FFF778FDB0
:106DB00000F0FF08B8F1000F0BD09DF8900240F0F2
:106DC00008008DF890029DF8820240F040008DF896
:106DD00082020C2200219CA803F07CFE9CA97C4826
:106DE000FDF768FC05464DB99E980078012805D14D
:106DF0009DF8830240F040008DF883020C220021B0
:106E00009CA803F067FE9CA949F63570FDF752FC7B
:106E10009E9800789F909DF87C0200F00F00032858
:106E200005D09DF87C0200F00F00062805D19DF8E2
:106E3000820240F080008DF88202A4AA49F66D70AB
:106E4000A399FDF7A5FDA0AA49F66E70A399FDF7D9
:106E50009FFD4FF49672002150A803F03BFE4FF4C3
:106E60009672002105A803F035FE0322002102A836
:106E700003F030FE0020A39050AAA3A949F6387071
:106E8000FDF762FC05467DBB50A949F66E70A39ADA
:106E900003F013FA40BB50A949F63570A39A03F0EA
:106EA0000CFA08B30020A290A4AAA2A949F66D701A
:106EB000FDF74AFC05464FF0010B9DF87C0201905E
:106EC0009DF890029DF87C1208439F90B8F1000F46
:106ED00004D09DF87C0240F008009F909FAA0121F9
:106EE00049F63570FDF754FD04AB05AA50A8A399E7
:106EF000FFF74EFABBF1000F05D001AA012149F6B8
:106F00003570FDF745FD4FF49672002150A803F04F
:106F1000E1FD50AC04F1050A05AA83215046049B0B
:106F200003F06CFD074605AA294831380499FDF79E
:106F30002FFD80202070A82060700020A070E070DD
:106F400027710021781D215407F1060950AE9BAB33
:106F500032464946204602F093FD05469DB11D4844
:106F6000854206D102F034FB28460DF5257DBDE8AB
:106F7000F08F1848401C854203D102F0BFFA284622
:106F8000F3E71548F1E79B98801E305C8DF80C0004
:106F90009B98401E305C8DF80D0002220FA103A8C3
:106FA00003F07CFD30B102F0DDFC002001F044FD77
:106FB0000020DAE730469B99FFF7FCF805460DB153
:106FC0002846D2E74FF4505001F036FD2846CCE772
:106FD00041829F000111040001250400900000007F
:106FE0003EB500240C220021684603F073FD69467B
:106FF0000648FDF75FFB044634B902980078012883
:1070000000D13EBD0020FCE70120FAE745829F0049
:107010003EB500240C220021684603F05BFD694662
:107020000648FDF747FB044634B90298007801286A
:1070300000D13EBD0020FCE70120FAE742829F001C
:107040002DE9F04786B000270020039000244FF080
:107050003C098246002500268046FFF763FA022895
:1070600003D0002006B0BDE8F0870822002104A864
:1070700003F030FD0020039004AA03A949F63770FD
:10708000FDF762FB074687B9039870B19DF81000C1
:1070900000069DF8111000EB01409DF8121000EB66
:1070A00001209DF8131000EB010A0822002104A81A
:1070B00003F010FD0020039004AA03A94148FDF746
:1070C00043FB074647B9039830B19DF81090B9F1DA
:1070D0003C0F01D94FF03C0909F10100BAFBF0F176
:1070E00000FB11A40822002104A803F0F3FC04AA69
:1070F00003A945F62570FDF727FB0746CFB99DF894
:10710000110000F00F009DF81110091101EB810131
:1071100000EB41009DF8101001F00F019DF81020C8
:10712000121102EB820201EB420101EB410100EB83
:1071300081050522002101A803F0CCFCA54209D954
:10714000281B0C21B0FBF1F6281BB0FBF1F201FB70
:1071500012080CE005F59660001B0C21B0FBF1F65F
:1071600005F59660001BB0FBF1F201FB1208B8F1C7
:10717000000F05D14FF00C080EB9632600E0761E13
:107180000A20B6FBF0F100FB11600A21B6FBF1F119
:1071900000EB0110C0B28DF806000A20B8FBF0F138
:1071A00000FB11800A21B8FBF1F100EB0110C0B225
:1071B0008DF8070001AA042149F63770FDF7E8FBB6
:1071C00000204FE746829F007CB500240025002068
:1071D000009019480068051D4FF480620021284680
:1071E00003F078FC00231A464FF4FE41284603F0D2
:1071F00005FCD7208DF80400012301AA4FF45F415C
:10720000284603F07DF8009008230C480C490268DA
:10721000284603F075F8009016230A4808491339E8
:107220000268284603F06CF800906946284604F08E
:1072300011F8044620467CBD0C04002010040020F8
:107240002981DF00140400207CB5044600250020BD
:10725000009013480068051D4FF480620021284605
:1072600003F038FC00231A464FF4FE41284603F091
:10727000C5FBD7208DF80400012301AA4FF45F411C
:10728000284603F03DF8009016232246054928467B
:1072900003F036F800906946284603F0DBFF7CBD1A
:1072A0000C0400201681DF0000B587B016220021F3
:1072B00001A803F00FFCA1208DF80400FF208DF839
:1072C0000500032204A10DF1060003F0F5FB01A85F
:1072D000FFF7BAFF07B000BD0000100010B5FFF7C0
:1072E0000FFB10B14CF2010010BD02F0C5F90020F7
:1072F00001F0A2FB0048F7E70132040030B585B089
:10730000044600250020049049F67070FDF7BAFB92
:10731000A8B1FEF7B9FA05468DB10120A070444826
:107320000068807840F08000414909688870032235
:1073300040A1204603F0C0FB284605B030BD032223
:107340000021684603F0C6FB6A4604A98220FDF7C7
:10735000FBF90546CDB99DF8010000F06000A0B929
:1073600033480068807840F010003149096888701F
:107370002F480068807840F080002D4909688870A7
:107380000120A0704CF20100D7E70522002101A8DE
:1073900003F0A0FB01AA04A949F66E70FDF7D4F929
:1073A00005463DB99DF8050000F0800010B94CF28B
:1073B0000100C2E70422002103A803F08BFB03AA0B
:1073C00004A949F67170FDF7BFF9054655BB9DF854
:1073D0000E00032804D10120A0704CF20100ACE79C
:1073E0009DF80C003F2804D10120A070FFF776FF24
:1073F000A3E79DF80C0001280FD19DF80E0002288C
:1074000006D1A0704FF4605001F016FB002094E705
:107410000120A070FFF762FF8FE70120A070FFF747
:107420005DFF8AE70120A0704CF2010085E70000B3
:107430001C0400203F0001007CB50546002001909F
:107440000024002604220021684603F043FB6A461C
:1074500001A949F67170FDF777F9044694B99DF8D2
:10746000000001280ED19DF8020001280AD1FFF783
:1074700047FAC6B236B902F0FFF8002001F0DCFA94
:1074800003487CBD2846FEF731F804462046F8E75D
:107490000132040070B58AB0064600240025FFF7CB
:1074A00045FA00287ED00C22002107A803F012FB29
:1074B00007A98F20FDF7FEF804460CB90898A0B97B
:1074C000681CC5B23C480068007840F004003A49A6
:1074D0000968087038480068007840F02000364994
:1074E0000968087000200AB070BDFFF741F848B184
:1074F00031480068007840F004002F49096808709E
:107500000020F0E70C22002104A803F0E3FA04A90C
:107510009020FDF7CFF804460CB9059808B9681C0F
:10752000C5B20C22002107A803F0D4FA07A949F636
:107530003270FDF7BFF804460CB9089808B9681C0A
:10754000C5B20C22002101A803F0C4FA01A949F632
:107550004670FDF7AFF804460CB9089808B9681CE6
:10756000C5B20C22002107A803F0B4FA07A949F616
:107570004770FDF79FF804460CB9089808B9681CD5
:10758000C5B2A5B13EB10C480068007840F00400D7
:1075900009490968087008480068007840F0200030
:1075A000054900E005E00968087000209BE701201C
:1075B00099E7204697E700001C0400202DE9F04FD2
:1075C000D7B0002400205690549055908146002654
:1075D00080464FF48062002195480068001D03F04A
:1075E00079FA9348006800F104080C22002151A8A0
:1075F00003F070FA51A949F64B70FDF75BF80446A9
:107600001CB18C4857B0BDE8F08F0C2200214EA869
:1076100003F060FA4EA949F63770FDF74BF80446BF
:1076200014B18448C01DEDE70C2200214BA803F0E3
:1076300051FA4BA949F64770FDF73CF8044614B1DE
:107640007C485138DEE70C22002145A803F042FABD
:1076500045A97948FDF72EF8044614B1754852380B
:10766000D0E746995298884202D07248C01FC9E7B5
:107670004FF48072002105A803F02CFA05AA529954
:1076800053988DE807004C9B4D9A4699479802F015
:10769000EFFD0DF1140BDA469DF81700049006AFCC
:1076A0009AF800006A2802D06248C01FAAE75298E0
:1076B000401E1BF80000BC2802D05E48801FA1E7D6
:1076C0009AF80100052802D05A48401F9AE79AF814
:1076D0000200012802D05748401F93E75298A0F1BA
:1076E00016020BF10101404603F0E6F95298A0F1B1
:1076F00016064F9838B108EB06004F9A509903F0E0
:10770000DBF94F9806445298153800EB0B023146CE
:107710004046FFF7CDF9044614B14648001F71E713
:10772000002597F80090B9F1080F0DD86D1C791954
:107730004A4654A803F0C0F94D4454AA494649F6B4
:107740004C70FDF725F902E03A48C01E5AE748A9F7
:1077500049F62770FCF7AEFF044674B9785D4A9984
:107760000978884208D07A19012149F62770FDF777
:107770000FF93048801E45E76D1C49F626700190D0
:10778000082002907819039001A8FDF787F8029865
:1077900005440498401B142802D37819569002E03F
:1077A0002448401E2EE704220021404603F092F9AF
:1077B000002601A92048DF30FCF77CFF04464CB9C5
:1077C000029838B108EB0600DDE9022103F074F9F4
:1077D0000298064401A91848E030FCF76BFF044604
:1077E0004CB9029838B108EB0600DDE9022103F03C
:1077F00063F90298064401A90F48E230FCF75AFFEA
:1078000004464CB9029838B108EB0600DDE90221C4
:1078100003F052F90298064431464046569AFFF763
:1078200047F9044614B10348001FEBE62046E9E699
:107830000C0400205944040031819F0010B500243D
:1078400001F06CF804460CB1204610BD2046FCE760
:10785000F0B5CBB004460D464FF496720021684651
:1078600003F038F92A462146684603F025F949F61F
:107870004B71684602F014FE684603F06BF806464A
:10788000684602F03DFF0746324639460248FDF79A
:107890007FF800204BB0F0BD13829F0070B5054605
:1078A0000E460024FEF7B6FF20281BD0802832D1D8
:1078B000FEF79AFF88B10120FFF7ECFD044684B182
:1078C000FFF7BCFF044664B11B480068007840F035
:1078D000040019490968087003E00020FFF7DAFD89
:1078E000044621E014480068007840F00200124984
:1078F0000968087000F022F8044614B100F060F83E
:1079000004463CB10C480068007840F040000A4949
:107910000968087008E008480068007840F08000B6
:1079200005490968087000BF00BF4FF45C5001F0C2
:1079300083F8002070BD00001C040020FEB5002567
:10794000002600240C220021684603F0C3F8694693
:107950008220FCF7AFFE0546029818B10298007825
:1079600000F040062EB38F20FDF78CF82044C4B2FF
:107970009020FDF787F82044C4B249F63270FDF735
:1079800081F82044C4B29320FDF77CF82044C4B2AF
:1079900084B10A480068007840F04000074909684F
:1079A000087006480068007840F020000349096824
:1079B000087001E00120FEBD2846FCE71C04002001
:1079C00010B50024FEF7D4FD04460CB1204610BDCE
:1079D00000F050FE04460CB12046F8E702F0E6F84D
:1079E00004460CB12046F2E72046F0E730B587B0F8
:1079F00000240025FEF796FD02282FD10C2200213D
:107A000004A803F067F80C22002101A803F062F833
:107A100004A949F63670FCF74DFE04460CB90598EA
:107A200008B9681CC5B201A90F48FCF743FE04461B
:107A30000CB9029808B9681CC5B24DB902990598ED
:107A4000884205D1DDE90221069803F027F820B12C
:107A500001F054FD054807B030BD00BF00F0F8F854
:107A600004462046F7E7000017829F000C430400FD
:107A70007FB50024002001900090002500260322FD
:107A8000002102A803F026F802AA01A949F609700C
:107A9000FCF75AFE04469DF809009DF8081000EB1B
:107AA000012524BB0322002103A803F013F803AA35
:107AB000694649F60870FCF747FE04469DF80D003C
:107AC0009DF80C1000EB01268CB9DDE9001088420E
:107AD00005D103A902A8009A02F0E0FF38B10548D9
:107AE0000068407840F08000024909684870002032
:107AF00004B070BD1C04002030B5CFB000240025B8
:107B00004CA8FDF707F89DF83001A02810D14E9C35
:107B10004FF49672002101A802F0DCFF01A84E9AF2
:107B20004D9902F0C9FF214601A8FDF70FF805465F
:107B300000204FB030BD00002DE9F14783B0002494
:107B40000025002700264FF48062002127480068A6
:107B5000001D02F0BFFF25480068071D00231A46DC
:107B60004FF4FE41384602F049FFA7208DF8080087
:107B7000012302AA4FF45F41384602F0C1FB019095
:107B8000012303AA1A49384602F0BAFB019001A961
:107B9000384603F05FFB04461CBB4FF4FE413846F9
:107BA00002F0DCFC0546E5B1284602F04BFD064636
:107BB00015E0304602F07EFE8246304602F0A0FD1F
:107BC0008046304602F0C6FE81464A46414650464F
:107BD000FCF7DEFE0446284602F0ECFD0646002EC9
:107BE000E7D1204604B0BDE8F08700000C04002077
:107BF00018829F0070B505460E460024FDF736FA40
:107C0000044614B9FFF734FF044614B9FDF77CF9B4
:107C1000044614B9FDF7E0F8044614B900F0DCFF9F
:107C2000044614B9FEF7D8F8044644B10748844224
:107C300001D001F063FC002000F0FEFE03E04FF4F1
:107C4000545000F0F9FE204670BD000007310400DA
:107C500030B5CDB0002008900025FEF763FC022867
:107C600002D000204DB030BD8022002109A802F0D2
:107C700031FF09AA08A95720FCF766FD054628220E
:107C8000002129A802F026FF29AA09A8089903F0D3
:107C900066FA3E2200213DA802F01CFF27220021A7
:107CA00033A802F017FF25208DF8F40042208DF84C
:107CB000F5000F2229A90DF1F60002F0FDFE5E206D
:107CC0008DF805018022002109A802F003FF15228A
:107CD00020210DF5837002F0FDFE09AA08A945F6E2
:107CE0002070FCF731FD05463DB9089828B109A977
:107CF0000DF58370089A02F0DFFE8022002109A8AA
:107D000002F0E8FE09AA08A949F63670FCF71CFD46
:107D10000546002D5CD10898002859D00024052282
:107D2000302106A802F0D6FE9DF825009DF824100B
:107D300000EB01240A20B4FBF0F100FB11409DF898
:107D40001C100844C0B28DF81C006420B4FBF0F194
:107D500000FB11400A21B0FBF1F09DF81B10084414
:107D6000C0B28DF81B004FF47A70B4FBF0F100FB49
:107D700011406421B0FBF1F09DF81A100844C0B224
:107D80008DF81A0042F21070B4FBF0F100FB1140C4
:107D90004FF47A71B0FBF1F09DF819100844C0B2AD
:107DA0008DF819007548B4FBF0F100FB114042F268
:107DB0001071B0FBF1F09DF818100844C0B28DF8B6
:107DC0001800052206A90DF21B1002F075FE00BF77
:107DD0005E208DF8200104222DA90DF2211002F061
:107DE0006BFE03222EA90DF2251002F065FE802203
:107DF000002109A802F06EFE09AA08A949F6377009
:107E0000FCF7A2FC054685B9089870B1092200214B
:107E100001A802F05FFE01AA09A8089903F09FF9E2
:107E2000042202A94AA802F047FE8022002109A8E4
:107E300002F050FE09AA08A949F62670FCF784FC56
:107E40000546002D5FD10898E8B39DF8290000048D
:107E50009DF82A1000EB01209DF82B1044180522F4
:107E6000302104A802F036FE0A20B4FBF0F100FB3A
:107E700011409DF814100844C0B28DF8140064201D
:107E8000B4FBF0F100FB11400A21B0FBF1F09DF8CA
:107E900013100844C0B28DF813004FF47A70B4FB8D
:107EA000F0F100FB11406421B0FBF1F09DF81210DD
:107EB0000844C0B28DF8120042F21070B4FBF0F129
:107EC00000FB114000E01EE04FF47A71B0FBF1F0CE
:107ED0009DF811100844C0B28DF811002748B4FB7A
:107EE000F0F100FB114042F21071B0FBF1F09DF88F
:107EF00010100844C0B28DF81000052204A94BA848
:107F000002F0DAFD00BF3F208DF831013B208DF8F3
:107F1000CC000F2229A90DF1CD0002F0CDFD3D20AE
:107F20008DF8DC0004222DA90DF1DD0002F0C4FD66
:107F300003222EA90DF1E10002F0BEFD042202A9E8
:107F400039A802F0B9FD052204A93AA802F0B4FD4F
:107F5000052206A90DF1ED0002F0AEFD3F208DF8DF
:107F6000F2003DAA3E210648FCF712FD33AA272164
:107F70000348401CFCF70CFD002073E6A0860100BE
:107F800021829F00F0B587B006460F4600240025E9
:107F90009420FCF79BFD10B100F062F804463CB958
:107FA00004A98C20FCF786FB0446059800B901253E
:107FB0003CB904A95720FCF77DFB0446059800B99D
:107FC000012544B904A945F62470FCF773FB044667
:107FD000059800B901253CB904A95A20FCF76AFBB1
:107FE0000446059800B9012504B925B101F086FAC7
:107FF000194807B0F0BDFEF795FA022825D10020F8
:1080000003900822002101A802F064FD01AA03A93F
:1080100049F63670FEF782FB04461CB101F06EFA99
:108020002046E6E7039828B149F636700399FDF734
:108030001BFF20B101F062FA0748401CD9E701AAF2
:1080400006480399FCF7A4FC00BF4FF4585000F019
:10805000F3FC2046CDE700000727040017829F00AD
:108060002DE9F04FDBB00025A94601205A904FF0D2
:10807000000A0020599083460027589000260024CB
:10808000079008AE08ACA449096881F84C084FF481
:1080900080620021A048006800F5896002F01AFDA6
:1080A00000209D490968C1F8480855A99420FCF7AB
:1080B00001FB5890589818B9DDF85CA15698599072
:1080C000599800F0030018B194485BB0BDE8F08FF8
:1080D00000251AE11AF8050000F0F80006900AEBF6
:1080E000050090F801800AEB0500807805900AEB06
:1080F0000500C078049001205A900698C710069891
:1081000000F0070018B18548FA38079001E10FB177
:108110001E2F02DD82480790FBE0B8F1000F03D16B
:108120007E48801C0790F4E00598804503DD7B487D
:10813000C01C0790EDE00598A0EB0800401C0499D6
:10814000884203DA7548001D0790E2E0C146D6E098
:108150004FF496720021304602F0BCFC4FF4967248
:108160000021204602F0B6FC00203070B220707072
:1081700086F80290069840F00400F07000203071FC
:108180000520549053AB22463046549901F078FCB8
:108190008346BBF1000F02D06148C01E95E753989B
:1081A000801E205C902803D15398401E205C10B1A3
:1081B0005B48001F89E700215398801E2154539883
:1081C000811E204602F0F6F810B95548401E7CE7A3
:1081D000002F43DD0A2F41DC2078702802D0504860
:1081E000801E72E70020039002900190204602F06A
:1081F00029FA00902EE0009802F05CFB03900098B2
:1082000002F07EFA0290009802F0A4FB01904FF079
:1082100000700399FDF7BCFD20B1009802F016FB39
:10822000009017E0DDE90210FDF71EFE10B13C489A
:10823000C01C4AE7DDE901210398FCF7A9FB83464E
:108240003848834501D158463FE7009802F0FEFACE
:10825000009000BF00980028CDD100BF04980028EE
:108260004BDD04984044484547D9204602F048FA7F
:108270000390204602F06EFB02902078702805D013
:1082800001202549096881F84C0835E00A2F17DCE0
:1082900021490968D1F848281F49096801F5896111
:1082A0005018DDE9021202F007FC1B480068D0F804
:1082B00048180398084418490968C1F8480818E0A4
:1082C00053998A1E14490968D1F848381249096837
:1082D00001F589615818214602F0EEFB0E4800684E
:1082E000D0F848185398801E08440B490968C1F813
:1082F00048085A98401C5A9000BF09F10109059896
:1083000081457FF625AF2D1D00BF59988542FFF4AA
:10831000E1AE00BF0798D8E60C0400200126040057
:1083200005270400051004002DE9F04FC1B0814677
:108330000D461646002700244FF48272002168463D
:1083400002F0C8FB29466846326802F0B5FB02AF6E
:108350006946306800EB010B08340FE097F80080A5
:1083600097F801A04FEA8960B0EB886F05D005F857
:108370000480641C05F804A0641CBF1C5F45EDD399
:108380003460002028552919085541B0BDE8F08F08
:108390002DE9F047ADF5167D00240025A146A04645
:1083A0004FF480620021AF480068001D02F092FB8C
:1083B000AC48006800F104080C2200218AA802F0F1
:1083C00089FB8AA949F64770FCF774F9044664B141
:1083D000A5480068007840F02000A34909680870AB
:1083E000A2480DF5167DBDE8F0870C2200218DA86E
:1083F00002F070FB8DA949F64670FCF75BF9044664
:1084000054B199480068007840F020009649096806
:1084100008709648401CE4E70C22002190A802F066
:1084200059FB90A99248FCF745F9044614B18F48CE
:10843000001FD6E70C22002193A802F04BFB93A962
:1084400049F63270FCF736F9044614B18748C01E6D
:10845000C7E791998E98884202D084482F30C0E7B0
:108460004FF48072002147A802F034FB47AA8E998E
:108470008F988DE80700949B959A9199929801F0B6
:10848000F7FE47AF47AE9198401E385CBC2802D03B
:1084900076483130A5E730786A2802D0734830300A
:1084A0009FE77078042802D07048383099E796F832
:1084B00013909198A0F11602791C404602F0FCFA44
:1084C00091981638054491982A3848453DD20C2297
:1084D000002187A802F0FEFA87A949F64870FCF748
:1084E000E9F804460CB9889850B95F4800680078EC
:1084F00040F020005C49096808705C48403070E733
:1085000091982A38A9EB00008899814202D05748F7
:10851000413066E79198A0F12A0207F1150107A8FA
:1085200002F0CAFA919B2A3B0DF11C0C03EB0C00E4
:10853000889A899902F0C0FA08EB0500889A89990F
:1085400002F0BAFA8898054405E04A4607F1150199
:1085500007A802F0B1FA07AA49464548401CFCF7B3
:1085600017FA707C012802D040483E3039E79198D4
:10857000153800EB070A08EB05008B9A8C9902F07E
:108580009BFA8B9805443749096808EB0500D1F838
:1085900048283449096801F5896102F08DFA3148AB
:1085A0000068D0F8480805440C22002104A802F015
:1085B00091FA04A949F64A70FCF77CF80446E4B93C
:1085C00006980078822815D10598012812D10C222E
:1085D000002101A802F07EFA01A98220FCF76AF8C6
:1085E000044608EB0500DDE9022102F065FA029875
:1085F000054402E01D484830F3E65246294640460D
:10860000FEF756FA044614B118484930E9E60C2240
:10861000002104A802F05EFA04A95A20FCF74AF8E7
:10862000044614B111482C30DBE60A21B01C069A2E
:10863000FDF78CFC044614B10C480D30D1E6022144
:1086400006F10C00FDF762FB044614B1074839300F
:10865000C7E6B07C012802D004483F30C1E60020C4
:10866000BFE600000C0400201C04002008440400A5
:1086700030819F002DE9F043ADF5617D0024002796
:10868000A0460C220021D8A802F024FAD8A99F48BD
:10869000FCF710F8044624B19D480DF5617DBDE856
:1086A000F0830C220021D5A802F014FAD5A997482E
:1086B000401CFBF7FFFF044614B19548401CECE753
:1086C0000C220021DEA802F005FADEA949F632707C
:1086D000FBF7F0FF044654B18E480068007840F084
:1086E00020008C49096808708948C01CD5E70C2215
:1086F0000021DBA802F0EEF9DBA99020FBF7DAFFFE
:10870000044654B183480068007840F02000814955
:10871000096808707E48001DBFE7D999DC98884237
:1087200002D07B480E30B8E74FF48072002192A847
:1087300002F0D0F992AADC99DD988DE80700D69B6B
:10874000D79AD999DA9801F093FD92AE92ADD99863
:10875000401E305CBC2802D06D4810309DE7287860
:108760006A2802D06A480F3097E76878022802D05A
:108770006748113091E795F80D804FF4967200210B
:1087800047A802F0A7F9D998A0F11602711C47A8D2
:1087900002F092F9D998163807444FF480720021FC
:1087A00007A802F097F9D998243840453CD20C220A
:1087B0000021D2A802F08EF9D2A99220FBF77AFF0D
:1087C00004460CB9D39850B952480068007840F07C
:1087D00020005049096808704D4831305DE7D9984C
:1087E0002438A8EB0000D399814202D048481730C2
:1087F00053E7D998A0F1240206F10F0107A802F06F
:108800005BF9D99B243B0DF11C0C03EB0C00D39AB4
:10881000D49902F051F947ABD819D39AD49902F000
:108820004BF9D398074405E0424606F10F0107A82B
:1088300002F042F907AA41463748FCF7A9F8D9984F
:10884000153800EB060947ABD819DF9AE09902F01A
:1088500033F9DF9807444A46394647A8FEF728F916
:1088600004460CB1204618E70C22002104A802F0AF
:1088700031F904A95A20FBF71DFF044614B124481E
:1088800032300AE70421A81C069AFDF75FFB044674
:1088900014B11F48133000E70221A81DFDF736FA76
:1088A000044614B11A481230F7E6E87A012802D0DB
:1088B00017481E30F1E6287B012802D014481F30EB
:1088C000EBE6FEF7A5FBF8B10C22002104A802F0AC
:1088D00001F904A98420FBF7EDFE04460C220021D7
:1088E00001A802F0F7F801A98F20FBF7E3FE044688
:1088F00005F1080203990698FEF7F6F8044614B14C
:1089000003483330C9E600BF0020C6E60182DF001D
:10891000024404001C04002030819F0010B5002494
:10892000FFF7A8FE04460CB1204610BDFFF730FD4E
:1089300004460CB12046F8E72046F6E72DE9F0475B
:1089400005468A4600260027B046B1460024284640
:1089500001F078FE04461DE0204601F0ABFF06461C
:10896000204601F0CDFE0746204601F0F3FF804689
:10897000424639463046FCF70BF8814639463046C8
:10898000FDF772FA10B10548BDE8F087204601F006
:108990005DFF0446002CDFD10020F5E70827040026
:1089A0002DE9F05F06468B460027B846B9460025FC
:1089B0000024304601F046FE044625E0204601F042
:1089C00079FF0746204601F09BFE8046204601F0D5
:1089D000C1FF8146207800F0200038B1204601F028
:1089E000A7FF824651462046FFF7DAFF4A46414636
:1089F0003846FBF7CDFF054615B12846BDE8F09F88
:108A0000204601F023FF0446002CD7D12846F5E785
:108A100001460348006880F84714002070470000B2
:108A20000C04002001460348006880F83F14002031
:108A3000704700000C0400200146024800680160F5
:108A4000002070470C0400207FB5044600200390EE
:108A50000025002602AA03A949F66D70FBF774FEF3
:108A600005469DB934B19DF8080040F008008DF826
:108A7000080005E09DF8080000F0F7008DF80800F8
:108A800002AA49F66D700399FBF782FF6A4603A9B3
:108A900049F66E70FBF758FE05469DB934B19DF856
:108AA000020040F040008DF8020005E09DF8020051
:108AB00000F0BF008DF802006A4649F66E70039917
:108AC000FBF766FF002004B070BD000001460348BC
:108AD000006880F84E180020704700000C04002049
:108AE00001460348006880F84D18002070470000D8
:108AF0000C04002001460348006880F84014002060
:108B0000704700000C04002070B505460E46002496
:108B10004FF44450FFF790FF55E0FDF70BFDC1B255
:108B2000002948D1001231380C2844D2DFE800F087
:108B3000060B11171D23292F353B41424FF4485096
:108B4000FFF77AFF38E03146284600F0E7FA04469E
:108B500032E031462846FEF7FFF804462CE0314665
:108B60002846FFF70FFA044626E031462846FEF76E
:108B700095FE044620E031462846FFF73BF80446C0
:108B80001AE031462846FCF7F9FD044614E0314668
:108B9000284600F0B1FA04460EE03146284600F0BF
:108BA00083F9044608E031462846FDF7E3FA044617
:108BB00002E001E000E000BF00BF04B104E0FDF707
:108BC000B9FC00B900E0A8E700BF3146284600F034
:108BD00043FE204670BD000010B588B00024002080
:108BE000039002900822002106A801F073FF06AA54
:108BF00003A949F67070FBF7A7FD0446002C63D16A
:108C00009DF8190000F0800000285DD008220021A6
:108C100004A801F05FFF04AA03A949F66E70FBF7F0
:108C200093FD0446002C4FD19DF8130000F0400046
:108C3000002849D00322002101A801F04BFF01AA1E
:108C400003A949F61A70FBF77FFD04460CB9039897
:108C500010B91E4808B010BD03220021684601F07B
:108C600039FF6A4602A945F62870FBF76DFD0446F8
:108C70000CB9029810B91548401CEBE7DDE9021069
:108C8000884213D101A96846039A01F007FF68B929
:108C90009DF8190000F04000A8B90D480068407820
:108CA00040F010000A49096848700CE09DF819006E
:108CB00000F0200038B906480068407840F0100005
:108CC00003490968487000BF0020C3E7023104006F
:108CD0001C04002070B586B004460D460026002016
:108CE000059004900422002103A801F0F3FE0495EE
:108CF00004AA21461F20FFF717FB01AA05A949F680
:108D00006E70FBF721FD064616B1144806B070BD23
:108D10009DF8050000F0400020B904AA2146022079
:108D2000FFF702FB049808280CD903AA20460499EF
:108D3000FCF780FC064603AA032149F63470FBF7D2
:108D400027FE08E0FCF7A0FD064605A2032149F630
:108D50003470FBF71DFE3046D8E700000215040012
:108D60003F000100F0B503460C4600210DE0585CC1
:108D7000675C00EA0705585C575C00EA070605B91E
:108D80000EB10120F0BD481CC1B20529EFDB002067
:108D9000F8E72DE9F04786B007460D4616464FF036
:108DA00000080024A246284601F0C2FD81464E4537
:108DB00003D0002006B0BDE8F08704A80090281971
:108DC00002AB05AA03A901F06BF8059820440499A9
:108DD000084402990844B04201D00020EAE7285D27
:108DE00000F02000002843D0DDE9041008440444CA
:108DF0003BE000E0641C285DFF28FBD000E0641C21
:108E0000285D0028FBD0B44201D30120D2E704A89A
:108E10000090281902AB05AA03A901F041F80598B2
:108E200020440499084402990844B04201D9002022
:108E3000C0E7285D00F0200088B10398B8420ED04A
:108E4000DDE904301844029BC21829193846FFF79F
:108E5000A0FF8046B8F1000F01D14046AAE7DDE946
:108E600004100844029908440444B442C1D305E004
:108E7000DDE904100844029908440444B44201D1D5
:108E8000012097E7002095E710B5FDF701FD38B107
:108E900004480068C07840F0800002490968C87042
:108EA000002010BD1C0400202DE9F04192B00746BF
:108EB0008846002500260024062200210DA801F086
:108EC00009FE062200210BA801F004FE0622002163
:108ED00009A801F0FFFD0622002107A801F0FAFD14
:108EE0000622002105A801F0F5FD0622002103A8B5
:108EF00001F0F0FD0622002101A801F0EBFD08229F
:108F0000002110A801F0E6FD10AA0FA99C20FBF794
:108F10001BFC05469DF840600DAA0FA949F60E708E
:108F2000FBF712FC05460BAA0FA949F60F70FBF7D9
:108F30000BFC054609AA0FA949F60D70FBF704FCC6
:108F4000054607AA0FA93548FBF7FEFB054605AA0B
:108F50000FA93248401CFBF7F7FB054603AA0FA9EF
:108F60002E48401EFBF7F0FB054605222C48016801
:108F700001A801F0A1FD0DAA07A901A8FFF7F2FEC3
:108F800060B10020FFF7B6FDFCF796FF4FF4685084
:108F9000FFF752FD002012B0BDE8F08110AA0FA922
:108FA00049F63570FBF7D0FB05469DF8404004F0CC
:108FB0000F04072C2AD2DFE804F02904091A050A55
:108FC0001B0000BF8020FFF795FD20E000BF0BAA2B
:108FD00005A901A8FFF7C6FE18B18020FFF78AFD9A
:108FE00004E04020FFF786FD00F0C6FE0FE000BF62
:108FF00009AA03A901A8FFF7B5FE18B10020FFF7E1
:1090000079FD02E04020FFF775FD00E000BF00BFE2
:109010004FF46850FFF710FD2846BCE72B819F00F6
:109020001C0400202DE9F04186B04FF00008002418
:10903000002500272E480068071D0422002138461D
:1090400001F048FD00231A464FF4FE41384601F076
:10905000D5FCE6208DF81400012305AA4FF45F41EA
:10906000384601F04DF9049001A95A20FBF722FB84
:10907000054635B93846DDE90232019901F040F97B
:10908000049001A945F63470FBF714FB054635B989
:109090003846DDE90232019901F032F9049004A961
:1090A000384602F0D7F880464FF4FE41384601F0CA
:1090B00055FA0446CCB100264DF60571204601F064
:1090C0004DFA0446204601F045FC0646307858B17A
:1090D00008480068007840F01000064909680870E8
:1090E000307806B0BDE8F08100BF0020F9E700004D
:1090F0000C0400201C04002070B505460E46002418
:10910000FFF7C2FEFDF76CFF08B1FFF78BFF4FF4CE
:109110006450FFF791FC204670BD00002DE9F0433C
:1091200085B0804689460024002500260027FEF7EA
:10913000E3FC044644B100F015FC0020FFF77CFC82
:10914000002005B0BDE8F0830C22002102A801F048
:10915000C1FC02A92648FBF7ADFA04460CB1204633
:10916000EFE78421049801F0F9F90546C5B12846D6
:1091700001F0F0FB0646284601F0C2FA0746DDE999
:109180000310FFF70DFC04463246394649F60670D7
:10919000FBF7FEFB3946304600F032F8044606E0A5
:1091A00000F0E0FB0020FFF747FC0020C9E70522A4
:1091B00000211048006801F08DFC0FA205219520C8
:1091C000FBF7E6FB05220021684601F083FC042141
:1091D0006846FDF70FFC6A46042149F63770FBF735
:1091E000D7FB4FF44C50FFF727FC0020A9E7000005
:1091F00001829F001C04002000000000000000000D
:109200002DE9F04F87B005460E4600240027A14601
:10921000A0464FF4806200212F480068001D01F035
:1092200059FC2D48006800F1040900231A464FF448
:10923000FE41484601F0E2FBD3208DF818000123DF
:1092400006AA4FF45F41484601F05AF805903346AC
:109250002A4649F60671484601F052F8059002A9DF
:109260009C20FBF727FA044634B99C214846DDE9E7
:10927000033201F045F8059005A9484601F0EAFFE0
:10928000044624BB4FF4FE41484601F067F9074607
:10929000EFB1384601F0D6F9804615E0404601F0BE
:1092A00009FB8246404601F02BFA8346404601F016
:1092B00051FB019059465046019AFBF769FB044661
:1092C000384601F077FA8046B8F1000FE6D1204623
:1092D00007B0BDE8F08F00000C0400201FB500208F
:1092E000009000240522002102A801F0F3FB0020D9
:1092F000009002AA694649F66E70FBF725FA04222F
:10930000002101A801F0E6FB01AA694649F6707048
:10931000FBF71AFA0446FDF705F901280FD19DF86D
:10932000080000F0800050B124B99DF8040000F05E
:10933000200020B100F040FB034804B010BD00F055
:10934000DDF80148401CF8E70731040000B589B09A
:1093500000200090082200213448006801F0BAFB88
:10936000162200213248006801F0B4FB10202F497A
:1093700009680870F0202D49096848702B49096870
:109380008870FDF7ADF829490968C870A020274901
:1093900009680871F020254909684871FF202349B0
:1093A00009688871002021490968C8711F48006850
:1093B000C078102804D11A201D490968087003E0FC
:1093C00003201B490968087004201949096848707E
:1093D000032218A116480068801C01F06DFB2022B2
:1093E000002101A801F076FB01AA694645F62A7022
:1093F000FBF7AAF9022201A90D480068143001F018
:109400005BFB2022002101A801F064FB01AA694650
:1094100045F62D70FBF798F901A90548009A0068F8
:10942000401D01F049FB002009B000BD10040020E0
:10943000140400200000000000B589B00020009056
:10944000082200212B48006801F044FB162200216D
:109450002948006801F03EFB202026490968087071
:10946000F020244909684870224909688870214918
:109470000968C87080201F4909680871F0201D49DB
:1094800009684871FF201B49096888710020194943
:109490000968C8710720184909680870042016492E
:1094A000096848702022002101A801F013FB01AADD
:1094B000694645F62A70FBF747F9022201A90E48D2
:1094C0000068143001F0F8FA2022002101A801F010
:1094D00001FB01AA694645F62D70FBF735F901A994
:1094E0000548009A0068401D01F0E6FA002009B026
:1094F00000BD0000100400201404002000B589B055
:10950000082200212E48006801F0E4FA40202C498E
:1095100009680870F0202A490968487028490968D4
:10952000887027490968C870C020254909680871F2
:10953000F020234909684871FF2021490968887192
:1095400000201F490968C871162200211D480068C3
:1095500001F0C0FA0F201B4909680870052019495D
:1095600009684870032218A116480068801C01F0A1
:10957000A3FA162200211548006801F0ABFA1C205E
:1095800012490968087002201049096848700020D3
:1095900000902022002101A801F09CFA00200090F8
:1095A00001AA694645F62D70FBF7CEF801A90548DA
:1095B000009A0068401D01F07FFA002009B000BD4C
:1095C000100400201404002000000D0018040020E6
:1095D00010B5082200212448006801F07BFA4020E1
:1095E00021490968087010201F4909684870F02057
:1095F0001D49096888701C490968C870C0201A494B
:1096000009680871F020184909684871FF20164957
:1096100009688871002014490968C8711622002160
:109620001248006801F056FA2120104909680870B4
:1096300005200E490968487003220DA10B480068F7
:10964000801C01F039FA162200210A48006801F056
:1096500041FA212007490968087002200549096874
:109660004870002010BD00001004002014040020E9
:1096700000000D001804002000B589B00822002168
:109680003F48006801F026FA40203D49096808700B
:1096900010203B4909684870F020394909688870F2
:1096A00037490968C870C020354909680871F02039
:1096B000334909684871FF203149096888710020E1
:1096C0002F490968C871162200212E48006801F050
:1096D00001FA20202B4909680870052029490968EA
:1096E0004870032228A127480068801C01F0E4F993
:1096F000162200212548006801F0ECF921202349B9
:109700000968087005202149096848700020009008
:109710002022002101A801F0DDF901AA694645F6E1
:109720002A70FBF711F8022201A9164800681430CC
:1097300001F0C2F9022201A914480068143001F0B6
:10974000BBF92022002101A801F0C4F900200090FB
:1097500001AA694645F62D70FAF7F6FF01A90948F6
:10976000009A0068401D01F0A7F901A90748009A76
:109770000068401D01F0A0F9002009B000BD000004
:10978000100400201404002000000A001804002027
:1097900000B589B000200090082200212C48006804
:1097A00001F098F9162200212A48006801F092F988
:1097B0003020274909680870F02025490968487059
:1097C000234909688870FCF78BFE21490968C87035
:1097D000A0201F4909680871F0201D4909684871D7
:1097E000FF201B4909688871002019490968C87160
:1097F0001B20184909680870032016490968487039
:109800002022002101A801F065F901AA694645F668
:109810002A70FAF799FF022201A90E480068143055
:1098200001F04AF92022002101A801F053F901AA10
:10983000694645F62D70FAF787FF01A90548009A99
:109840000068401D01F038F9002009B000BD00009B
:1098500010040020140400202DE9F041ADF5027D34
:1098600005460C4600200190002600278046002374
:109870001A464FF4FE41284601F0C0F80823344848
:1098800034490268284600F03BFD206030480068FB
:10989000007900F0800040B116232F482D4913397C
:1098A0000268284600F02CFD2060294800680079F5
:1098B00000F0400038B1162328482949026828469C
:1098C00000F01EFD206022480068007900F02000B2
:1098D000E0B14FF40072002102A801F0FBF801A9E9
:1098E00002A8FCF70FFB02A800F0E4FF064602A85E
:1098F00000F006FF074602A801F02CF880463B4620
:1099000042463146284600F0FBFC206010480068C3
:109910000078202816D101A902A8FCF7CFFA02A8E6
:1099200000F0C8FF064602A800F0EAFE074602A8BB
:1099300001F010F880463B4642463146284600F08A
:10994000DFFC206000200DF5027DBDE8F081000005
:10995000100400202981DF001404002018040020D6
:1099600017819F0010B5082200211248006801F0FD
:10997000B1F850200F490968087020200D49096886
:109980004870F0200B49096888700A490968C87056
:109990000020084909680871F020064909684871E3
:1099A000FF20044909688871002002490968C871CC
:1099B00010BD00001004002000B589B00020009008
:1099C000082200212C48006801F084F860202A4910
:1099D00009680870F0202849096848702649096814
:1099E000887025490968C870802023490968087172
:1099F0000120214909684871FF201F4909688871C1
:109A000000201D490968C871162200211B48006802
:109A100001F060F81D2019490968087005201749F0
:109A2000096848702022002101A801F053F801AA1A
:109A3000694645F62A70FAF787FE022201A90F4807
:109A40000068143001F038F82022002101A801F04C
:109A500041F80020009001AA694645F62D70FAF7FA
:109A600073FE01A90548009A0068401D01F024F822
:109A7000002009B000BD00001004002014040020E4
:109A80002DE9FF4704460D4616461F464FF00008D5
:109A9000C1462B48006800F104094FF480620021A0
:109AA000484601F017F800231A464FF4FE41484695
:109AB00000F0A4FFF1208DF80C00012303AA4FF45D
:109AC0005F41484600F01CFC2B4622464DF60171D2
:109AD000484600F015FC1A48016801F20441484666
:109AE00001F0B8FB8046B8F1000F03D0154804B070
:109AF000BDE8F0870C220021684600F0EBFF6846C5
:109B0000FBF70EF880469DF80000A42807D10298C4
:109B100038603046DDE9011200F0CEFF0DE09DF81F
:109B20000000A52802D10748401CE0E79DF800008E
:109B3000A62802D10348801CD9E70020D7E70000FF
:109B40000C040020001104007FB5002400200290C6
:109B5000FF250222002103A800F0BCFF03AA02A9EE
:109B60001148FAF7F1FD9DF80C0000F04000B8B183
:109B700008220021684600F0ADFF002002906A46EE
:109B800002A949F67070FAF7DFFD04462CB9029875
:109B900018B19DF8010000F00F052846FDF7CCFF35
:109BA000002004B070BD000018829F002DE9F04332
:109BB000DBB00025002700240026A0464FF4806279
:109BC000002169480068001D00F084FF66480068B5
:109BD000071D0C22002158A800F07CFF58A99320F3
:109BE000FAF768FD05460DB9599858B95F480068FD
:109BF000007840F020005D49096808705C485BB05F
:109C0000BDE8F0830C22002155A800F063FF55A9A0
:109C100049F63270FAF74EFD05460DB9569850B91F
:109C200052480068007840F02000504909680870E8
:109C30004F48401CE3E70C22002152A800F04AFFE5
:109C400052A94C48FAF736FD05460DB9539810B99C
:109C50004748801CD3E74FF49672002104A800F017
:109C600039FF04AA59995A988DE80700569B579ACC
:109C70005399549800F0FCFA0DF1100804AE3078B6
:109C80006A2802D03A48C01EB9E75998401E18F811
:109C90000000BC2802D03648C01EB0E77078032808
:109CA00002D03348801EAAE7B078012802D030489D
:109CB000401EA4E75998153800EB0809002459986C
:109CC000A0F1160208F10101384600F0F5FE59989E
:109CD00016380444244909683819D1F8482822491B
:109CE000096801F5896100F0E7FE1F480068D0F8B7
:109CF000480804440C2200214FA800F0EBFE4FA9B5
:109D000049F64A70FAF7D6FC0546DDB95198007855
:109D1000822814D15098012811D10C22002101A8C9
:109D200000F0D8FE01A98220FAF7C4FC05463819D4
:109D3000DDE9022100F0C0FE0298044402E00C4874
:109D400014385CE74A4621463846FCF7B1FE054622
:109D500015B10748133852E7F21C022149F6457045
:109D6000FAF716FE00204AE70C0400201C0400202D
:109D70006444040030819F0030B589B00024002085
:109D8000019000250D22002102A800F0A3FE02AAE6
:109D900001A949F60270FAF7D7FC0446002C33D12A
:109DA000019888B30198410002A800F033F80546F5
:109DB0000C22002106A800F08DFE06A91448FAF72F
:109DC00079FC044644B9079830B10898007818B176
:109DD00015B98020FEF78EFE0C22002106A800F0A7
:109DE00079FE06A90A48401CFAF764FC04465CB9EF
:109DF000079848B10898007830B1FCF7A1FBA84259
:109E000002D18020FEF776FE002009B030BD0000B0
:109E100043829F0070B50246002001244E1C02EBD5
:109E20005602002315E003F0010616B11678350935
:109E300004E0561E3246367806F00F0504FB050096
:109E4000054EB44201D1002402E004EB8406740004
:109E50005B1C8B42E7D370BD00CA9A3B10B5024829
:109E6000006801F000F910BD0804002070B5044638
:109E700000250CB9284670BD21460348006801F052
:109E8000D0F805462846F6E70804002007B5034841
:109E90009DE80E00006801F004F90EBD08040020E2
:109EA0002DE9F04104460E4617461D46DDF81880A0
:109EB0000CB9BDE8F08100202860207830600120D6
:109EC0003860207800F01F001F2826D1607800F04D
:109ED0008000802821D1A07800F0800080281CD14B
:109EE00020780006617800EB0140A17800EB0120AA
:109EF000E1780844306004203860207900F0800068
:109F000028B12A464146201D01F012F954E00120F3
:109F1000C8F80000207928604EE0207800F01F008B
:109F20001F281ED1607800F08000802819D1207889
:109F30000004617800EB0120A17808443060032020
:109F40003860E07800F0800028B12A464146E01CE5
:109F500001F0EEF830E00120C8F80000E078286059
:109F60002AE0207800F01F001F2816D160783168A1
:109F700000EB0120306002203860A07800F0800003
:109F800028B12A464146A01C01F0D2F814E0012075
:109F9000C8F80000A07828600EE0607800F080002B
:109FA00028B12A464146601C01F0C2F804E00120B5
:109FB000C8F800006078286000BF7AE7F8B504466A
:109FC0000D46164600200090002704B9F8BD002079
:109FD000306020782860207800F01F001F2824D1EE
:109FE000607800F0800080281FD1A07800F0800009
:109FF00080281AD120780006617800EB0140A17812
:10A0000000EB0120E178084428600427207900F063
:10A01000800028B132466946201D01F089F833E0FE
:10A0200020793060012000902EE0207800F01F00A1
:10A030001F2812D1607800F0800080280DD1207890
:10A040000004617800EB0120A17808442860032710
:10A05000E07830600120009016E0207800F01F00CA
:10A060001F280AD16078296800EB012028600227A8
:10A07000A07830600120009006E0207820B1012710
:10A0800060783060012000900120009000983844F2
:10A090009CE7F8B504460D461646002000900027C0
:10A0A00004B9F8BD0020306020782860207800F0E6
:10A0B0001F001F2824D1607800F0800080281FD165
:10A0C000A07800F0800080281AD1207800066178FE
:10A0D00000EB0140A17800EB0120E1780844286002
:10A0E0000427207900F0800028B132466946201DFF
:10A0F00001F01EF851E020793060012000904CE022
:10A10000207800F01F001F281CD1607800F080002C
:10A11000802817D120780004617800EB0120A17815
:10A12000084428600327E07800F0800028B1324618
:10A130006946E01C00F0FCFF2FE0E0783060012071
:10A1400000902AE0207800F01F001F2814D16078CA
:10A15000296800EB012028600227A07800F0800029
:10A1600028B132466946A01C00F0E2FF15E0A07855
:10A1700030600120009010E0207870B101276078F5
:10A1800000F0800028B132466946601C00F0D0FF24
:10A1900003E060783060012000900098384480E748
:10A1A00030B50246002001230A4400240BE0551E6E
:10A1B0002A462D7803FB0500B3F1004F01D100239F
:10A1C00000E01B02641C8C42F1D330BD70B5044624
:10A1D0000026254695E80700FFF758FE06460020B2
:10A1E00070BD00002DE9FC4706460D469046D8F8A4
:10A1F00000901E4F00241DE0B9FBF7F0C0B20DF82F
:10A2000004001DF804000A2190FBF1F201FB12008A
:10A210001DF804100A2291FBF2F100EB0110C0B20C
:10A220000DF80400B9FBF7F007FB10996420B7FBA9
:10A23000F0F7641C052CDFD32A460021304600F0DD
:10A2400049FC2E44B246052D00D90525002407E01F
:10A25000C4F104001DF80010701E06460170641C55
:10A26000AC42F5D30020BDE8FC87000000E1F50515
:10A270002DE9FE4F05460E4617469846DDE90DAB23
:10A28000DDF83090002443463A46314628468DE8B2
:10A29000000E01F01DF8044614B12046BDE8FE8F03
:10A2A0000020FBE770B504460D46164633462A46A5
:10A2B0002146012001F03BF870BD2DE9FC41074625
:10A2C0000D469046002417E04CB100E0641C285D68
:10A2D000FF28FBD000E0641C285D0028FBD0281973
:10A2E0006A4601A9FFF7D5FE06460198B84202D199
:10A2F0000120BDE8FC8134444445E5D30020F8E763
:10A300002DE9F0478AB00446884691469A4620785F
:10A3100000F0200018B900200AB0BDE8F087204600
:10A3200000F006FB071908A806AB09AA07A90090C8
:10A330002046FFF7B5FD53464A464146384600F0F1
:10A340005DFB06460699881901A900F05BFF0546EA
:10A35000012D26D90020069A9119089A954215D9FF
:10A3600000BF11E0DDE908321A440A44121A521EF5
:10A37000A35CDDE908C262440A44121A2A44A2EB33
:10A380000C02521EA354401C8842EBD3002005E06F
:10A3900001AA125C099B0344E254401CA842F7D373
:10A3A00004E00998205C304409996054204600F08C
:10A3B000BFFAB1E72DE9F04186B007460E4600240A
:10A3C0000025384600F0B4FA8046464503D0002008
:10A3D00006B0BDE8F08159E000E0641C385DFF285C
:10A3E000FBD000E0641C385D0028FBD0B44201D3F0
:10A3F0000120EDE764B1681E284951F83010274A62
:10A4000002EBC00040680844A04201D86D1E3DE048
:10A4100004A80090381902AB05AA03A9FFF740FD74
:10A42000059820440499084402990844B04201D98F
:10A430000020CDE7194840F83540DDE90410084414
:10A4400002990844154901EBC50148606D1C385D4F
:10A4500000F02000A8B96D1E104850F835000F49D3
:10A4600001EBC50149684418681E0C4951F83010C9
:10A470000A4A02EBC00040680844A04205D86D1E9D
:10A4800003E0DDE904100844044400BFB442A3D350
:10A49000B44201D101209BE7002099E7E848002061
:10A4A0002DE9F04F8BB0054689460024287800F04E
:10A4B000200018B900200BB0BDE8F08F09A807AB49
:10A4C0000AAA08A900902846FFF7EAFC284600F0EF
:10A4D00041FA83464946284600F040F80646002ED9
:10A4E00038D0284600F024FA8046304600F020FAA2
:10A4F000074605EB0800811BA1EB070A002403E0D7
:10A50000F019005D3055641C5445F9D30799C81BF8
:10A5100002A900F077FE8046002405E002A8005D55
:10A520000A9921446854641C4445F7D3099880452E
:10A530000FD2002409E0DDE9091008442044285C1A
:10A540000A99414421446854641C0798C01BA042E6
:10A55000F1D800BF284600F0EBF9ACE72DE9F04157
:10A5600086B006460F461EB9002006B0BDE8F08151
:10A570000024002504A80090301902AB05AA03A905
:10A58000FFF78EFCDDE904100844029900EB010896
:10A5900051E04CB100E0641C305DFF28FBD000E0CE
:10A5A000641C305D0028FBD064B1681E244951F85A
:10A5B0003010234A02EBC00040680844A04201D892
:10A5C0006D1E38E004A80090301902AB05AA03A95B
:10A5D000FFF766FC1A4840F83540DDE904100844EE
:10A5E00002990844164901EBC50148606D1C0398A7
:10A5F000874201D13019B8E7305D00F02000A8B9DA
:10A600006D1E0F4850F835000D4901EBC501496832
:10A610004418681E0A4951F83010094A02EBC0007C
:10A6200040680844A04205D86D1E03E0DDE904102F
:10A630000844044400BF4445ABD3002095E7000024
:10A64000E8480020F0B585B0054600262F460020DA
:10A650000490039001900024264908600FB905B0CA
:10A66000F0BD387800F0200008B90020F7E703A813
:10A6700001AB04AA02A900903846FFF711FC01982B
:10A6800008B90020EBE7DDE903100844019908440C
:10A6900019490860DDE90310084416490860284696
:10A6A00000F058F9064606B300E0641C305DFF2850
:10A6B000FBD000E0641C305D0028FBD00D48006832
:10A6C00020440C49086003A80090301901AB04AA8B
:10A6D00002A9FFF7E5FB07480068049908440399BD
:10A6E0000844019908440549086002480068284464
:10A6F000B5E70000200400202404002028040020E6
:10A700007CB5044601AD6E460CB900207CBD2078B6
:10A7100000F01F001F2816D1607800F0800080280C
:10A7200011D1A07800F0800080280CD1207900F0B1
:10A73000800028B12A463146201D00F0F9FC37E0A0
:10A740002079286034E0207800F01F001F2811D104
:10A75000607800F0800080280CD1E07800F0800064
:10A7600028B12A463146E01C00F0E2FC20E0E07807
:10A7700028601DE0207800F01F001F280CD1A07871
:10A7800000F0800028B12A463146A01C00F0D0FC21
:10A790000EE0A07828600BE0607800F0800028B11F
:10A7A0002A463146601C00F0C3FC01E06078286056
:10A7B0000198ABE770B586B00446002514B90020B7
:10A7C00006B070BD1F4800681F490968884201D360
:10A7D0000020F5E704E01B480068401C19490860A8
:10A7E00018480068205CFF28F5D004E01548006890
:10A7F000401C1449086013480068205C0028F5D00C
:10A800001048006810490968884218D20D48066847
:10A81000006825188DB104A802AB05AA03A9009011
:10A820002846FFF73DFBDDE904100844029908447F
:10A8300004490968084403490860A019C0E70020DA
:10A84000BEE70000280400202404002070B505465F
:10A8500000241648006816490968884203D2284631
:10A8600000F066F804461148006820441049096861
:10A87000884201D3002070BD00E0641C285DFF28E1
:10A88000FBD000E0641C285D0028FBD0074800686E
:10A89000204406490860084600680549096888425E
:10A8A00001D22819E7E70020E5E700002004002096
:10A8B000240400200146002209B9002070470878CE
:10A8C00000F01F001F2814D1487800F08000802875
:10A8D0000FD1887800F0800080280AD1087800061F
:10A8E0004B7800EB03408B7800EB0320CB78C21849
:10A8F0001CE0087800F01F001F280CD1487800F0F9
:10A900008000802807D1087800044B7800EB0320F2
:10A910008B78C2180AE0087800F01F001F2804D1C5
:10A9200048780B7800EB032200E00A781046C5E770
:10A9300010B586B0044604A802AB05AA03A900908E
:10A940002046FFF7ADFADDE90410084402990844F7
:10A9500006B010BD014609B900207047087800F024
:10A960001F001F2815D1487800F08000802810D1E2
:10A97000887800F0800080280BD10423087900F04B
:10A98000800020B1087900F07F00421C33E00122F2
:10A9900031E0087800F01F001F2810D1487800F03F
:10A9A000800080280BD10323C87800F0800020B1FC
:10A9B000C87800F07F00421C1DE001221BE00878EF
:10A9C00000F01F001F280BD10223887800F08000C0
:10A9D00020B1887800F07F00421C0CE001220AE0E0
:10A9E0000123487800F0800020B1487800F07F0013
:10A9F000421C00E00122C8181044AEE72DE9FF4FC9
:10AA000085B004468B4699460026B0461CB9002006
:10AA100009B0BDE8F08F4FEA1B652BF07F4715B1F9
:10AA20003046761C2554C7F30745BFB215B13046F2
:10AA3000761C2554C7F30725FFB215B13046761CA6
:10AA40002554FDB23046761C25546946484600F030
:10AA5000D9FB8246BAF1010F0CD94FF0000806E08D
:10AA60001DF808203046761C225408F10108D04514
:10AA7000F6D303E03046761C04F800904FF000084F
:10AA800007E0079810F808203046761C225408F199
:10AA90000108C845F5D33046BAE7000070B5044652
:10AAA0000D46164603483246294603682046984715
:10AAB00070BD0000E000002070B504460D4616464B
:10AAC00003483246294603682046984770BD000077
:10AAD000E400002070B504460D4616460348324691
:10AAE000294603682046984770BD0000EC0000200E
:10AAF0002DE9F04186B080460D46002600200190E9
:10AB000000900322002103A8FFF7E4FF03AA01A994
:10AB100045F62A70F9F718FE064616B9019802287C
:10AB200003D0264806B0BDE8F0810322002102A828
:10AB3000FFF7D0FF02AA694649F64270F9F704FE12
:10AB4000064616B90198022801D01C48EAE7DDE95B
:10AB50000010884205D102A903A8019AFFF79EFFC1
:10AB600008B11648DEE70622002104A8FFF7B2FF6D
:10AB700004AA01A949F60270F9F7E6FD06460EB1EE
:10AB80000E48CFE70C2104A8FFF744F9074604213B
:10AB90004046FFF705FB04462DB9BC4201D9002011
:10ABA000C0E70648BEE7012D05D1BC4201D2002016
:10ABB000B8E70248B6E70148B4E70000020000F138
:10ABC0000146104801F03F02042A13D007DC6AB1A5
:10ABD000012A11D0022A0AD0032A10D10DE0052A39
:10ABE00009D01E2A04D01F2A09D102E000BF00BFED
:10ABF00000BF00BF00BF00BF00BF002000E000BFDB
:10AC000000BF7047040000F170B586B006460C46E0
:10AC10005A4D0C22002101A8FFF75CFF01A949F65B
:10AC20003370F9F747FD054615B1554806B070BDBC
:10AC3000032200216846FFF74DFF6846DDE9022147
:10AC4000FFF73AFF0C22002101A8FFF743FF01A9FB
:10AC500049F66E70F9F72EFD05460DB14848E5E757
:10AC60000522002104A8FFF735FF04A8DDE9022131
:10AC7000FFF722FF06F03F00042830D007DC68B160
:10AC800001280DD0022849D0032870D109E00528F9
:10AC900026D01E285BD01F2869D135E00020C5E7EB
:10ACA00000BF9DF8110000F0800048B99DF8110028
:10ACB00000F0100020B99DF8010000F0800008B1FC
:10ACC0000020B3E72D4D2D1D032C07D02D48006823
:10ACD000807840F010002B49096888704AE000BF76
:10ACE0009DF8010000F0100008B100209EE7234D00
:10ACF0002D1D032C07D023480068807840F01000F9
:10AD000020490968887035E09DF8010000F00800CE
:10AD100008B100208AE7194D2D1D2BE09DF8110088
:10AD200000F0400020B99DF8010000F0400008B19B
:10AD300000207BE7114D2D1D032C07D01148006822
:10AD4000807840F010000F490968887012E09DF883
:10AD5000110000F0200020B99DF8010000F0200053
:10AD600008B1002062E7054D2D1D03E0FFE7034811
:10AD7000C01C5BE700BF284658E70000010000F157
:10AD8000021504001C0400202DE9F04F87B0814615
:10AD90000F4690461D46DFF824A1002400200390B2
:10ADA000002601904FF0FF0B0422002102A8FFF7BC
:10ADB00091FE02AA01A949F63570F9F7C5FC039086
:10ADC0009DF8086006F0F000102806D0202805D075
:10ADD000302804D0902816D10BE000BF00BF06F049
:10ADE0000F00042802DA4FF0010B01E04FF0000BD6
:10ADF0000AE006F00F00052802DA4FF0010B01E02F
:10AE00004FF0000B00E000BF00BF0C22002104A89F
:10AE1000FFF760FE04A99C20F9F74CFC039006980C
:10AE200004780A2D40D2DFE805F0050810171D222E
:10AE3000272D33394FF0000A3BE0BBF1000F03D15F
:10AE4000012C01D14FF0000A33E0012C03D0092C72
:10AE500001D04FF0000A2CE029464046FFF7D4FE0F
:10AE6000824626E0012C01D14FF0000A21E0092C96
:10AE700001D14FF0000A1CE000214846FFF738FEE0
:10AE8000824616E001214846FFF732FE824610E076
:10AE900000213846FFF72CFE82460AE001213846A1
:10AEA000FFF726FE824604E0DFF810A0AAF1010AAF
:10AEB00000BF00BF504607B0BDE8F08F020000F1B0
:10AEC0002DE9FC4105460024042229466846FFF787
:10AED000F3FD00BF0FE01DF804000A21B1EB201FB5
:10AEE00005DD1DF8040000F00F000A2802DBA32096
:10AEF000BDE8FC81641C042CEDD39DF8000000111A
:10AF00004FF47A7148439DF8001001F00F0164225C
:10AF100002FB01009DF8011009110A2202FB010049
:10AF20009DF8011001F00F0146189DF8020000F095
:10AF30000F009DF80210091102FB01079DF80300A4
:10AF400000F00F009DF80310091102FB01084246B2
:10AF50003946304600F046F8CAE701464FF4C8705B
:10AF6000B1FBF0F200FB121040B101F0030038B960
:10AF70006420B1FBF0F200FB121008B10020704712
:10AF8000A220FCE770B506460D4614460CB9A12078
:10AF900070BD0D2D24D2DFE805F0230711081C0930
:10AFA0001D0A0B1E0C1F0D0000BF00BF00BF00BF1D
:10AFB00000BF00BF1F2020600020E9E73046FFF7F8
:10AFC000CCFF10B91D20206001E01C202060002073
:10AFD000DEE700BF00BF00BF1E2020600020D7E7D3
:10AFE000A520D5E7F8B504460F46154640F26C702B
:10AFF000844203D340F6C410844201D9A420F8BD92
:10B000006A4639462046FFF7BDFF06460EB1304678
:10B01000F5E715B10098854201D9A620EFE7002099
:10B02000EDE770B504460D460CB9002070BD204612
:10B0300000F05BF808B10020F8E794F8600000EB3E
:10B04000400004EB800207CA85E8070094F860100E
:10B05000481CC11700EB5171C910A0EBC10184F865
:10B0600060100120E2E7002100B97047002280F85B
:10B07000602080F8612000210FE0002201EB4103F5
:10B0800000F8232001EB410300EB83035A6001EB3E
:10B09000410300EB83039A60491C0829EDD300BFEC
:10B0A000E3E71FB5044614B9002004B010BD2046E4
:10B0B00000F029F808B10020F7E794F8610000EBF0
:10B0C000400004EB800001A90EC90EC06034617815
:10B0D000481CC11700EB5171C910A0EBC101617090
:10B0E000607814F86019401ADFE7014609B90120B9
:10B0F000704791F8600091F86120904201D10120E1
:10B10000F6E70020F4E7014609B90120704791F8FD
:10B110006120501C91F86020C31700EB5373DB10C3
:10B12000A0EBC3039A4201D10120EFE70020EDE735
:10B13000F0B503460C46002100251E7806F07F0678
:10B14000711C012006E01E5C4F1E3F1AFF00BE402E
:10B150003544401C8842F6D315602160F0BD10B51F
:10B1600003460C46002119E001F0010030B103EB69
:10B170005100007800F00F00505404E003EB510040
:10B18000007800115054505C092803DD505C3730C2
:10B19000505402E0505C30305054491CB1EB440F25
:10B1A000E2D300205054600010BD70B50446002565
:10B1B0002046FFF70BF80546284670BDF8B5054652
:10B1C0000C460026FBF7E6FC009469462846FBF790
:10B1D00041FD3046F8BD01460020704770B5044679
:10B1E0000D46002629462046FDF78EFC06463046D1
:10B1F00070BD000002460020014B1A60704700003D
:10B200000004002070B504460A4600207F2C00D9B7
:10B210000120210E24F07F4311B10546401C5155F9
:10B22000C3F307419BB211B10546401C5155C3F30E
:10B230000721DBB211B10546401C5155D9B2054674
:10B24000401C5155012804DD451EEDB245F0800536
:10B25000157070BD70B504460D460026294620467F
:10B26000024A126890470646304670BD000400202E
:10B270001FB5044643208DF808000194002000907B
:10B28000CDF80CD04FF00050416802A8884710B9A3
:10B29000009804B010BD0020FBE73EB504464220F4
:10B2A0008DF804000094CDF808D00007416801A88B
:10B2B00088473EBD3EB5044600208DF8040000944A
:10B2C000CDF808D04FF00050416801A888473EBD36
:10B2D0002DE9F84F06460F4690469946DDE90AAB40
:10B2E0000820FFF7C5FF05461C20FFF7C1FF0446F5
:10B2F0003320287026606760C4F80880C4F80C907A
:10B30000C4F810A0C4F814B00C98A0616C604FF0A1
:10B310000050416828468847C0B200902846FFF791
:10B32000BCFF2046FFF7B9FF0098BDE8F88F2DE974
:10B33000F04782460E46174698460820FFF798FFCA
:10B3400005461420FFF794FF04463B202870012097
:10B3500020706660A760C4F80C806C60400741688C
:10B360002846884700F0FF092846FFF796FF204649
:10B37000FFF793FF4846BDE8F08700000A480B49F5
:10B3800008600B48C906C1F8C8010A4807490831D6
:10B3900008600948091D08600848091D0860084838
:10B3A000FFF788FF00BFFEE7F5B10A10C4010020D7
:10B3B000BDB10A10DDB10A10ABB10A10D7B10A1045
:10B3C000000801104200000000040002010000001B
:10B3D00003000000030000004F0000000004000212
:10B3E00005000000050000001000000050000000F3
:10B3F0000004000204000000010000001000000032
:10B4000052000000000400020400000001000000DF
:10B4100010000000570000000002000205000000BC
:10B4200000000000130000005A00000000020002AB
:10B4300002000000000000000A000000205F000081
:10B440000004000204000000020000001A000000D6
:10B45000245F000000020002010000000300000061
:10B4600003000000255F000000040002010000004E
:10B470000300000003000000285F00000004000239
:10B480000500000002000000020000002A5F00002A
:10B4900000040001010000000200000002000000A2
:10B4A0002D5F000000040002030000000200000005
:10B4B00008000000305F00000004000201000000EE
:10B4C0000200000002000000345F000000040002DF
:10B4D000010000000100000001000000365F0000D4
:10B4E0000004000201000000010000000100000053
:10B4F000505F000000040002040000000000000093
:10B50000E7030000575F0000000400020100000094
:10B5100001000000010000008100000000040001A3
:10B52000050000000400000004000000820000008C
:10B5300000040002050000000200000002000000FC
:10B54000860000000004000205000000000000006A
:10B550000501000087000000000400020500000053
:10B56000010000000100000088000000000400024B
:10B57000050000000100000001000000890000003B
:10B5800000040002040000000600000006000000A5
:10B590008A0000000004000903000000020000000F
:10B5A000020000008C000000000200020500000004
:10B5B00000000000FC0000008D00000000020002FE
:10B5C0000500000000000000FC0000008E000000EC
:10B5D000000400020500000000000000FC00000064
:10B5E0008F000000000400020500000001000000C0
:10B5F00001000000900000000004000205000000AF
:10B6000000000000E70300009100000000040008B3
:10B61000050000000800000010000000920000007B
:10B62000000400020500000000000000E703000025
:10B63000930000000004000205000000000000006C
:10B64000E703000095000000000400010500000071
:10B650000500000005000000970000000004000243
:10B660000500000000000000FC0000009800000041
:10B670000004000205000000140000001400000097
:10B680009900000000040002050000000000000016
:10B69000E70300009A000000000400010100000020
:10B6A00003000000030000009B00000000040001F4
:10B6B0000500000002000000020000009C000000E5
:10B6C0000004000101000000010000000100000072
:10B6D0009D000000000400020500000005000000BD
:10B6E00010000000019F00000004000201000000A3
:10B6F0000600000006000000029F00000004000198
:10B70000010000000600000006000000039F00008A
:10B710000004000101000000060000000600000017
:10B72000049F000000040001050000000400000068
:10B7300004000000059F0000000400020500000056
:10B740000100000020000000069F0000000400012E
:10B75000050000000500000010000000079F000029
:10B7600000020002050000000200000002000000CC
:10B77000089F000000040002050000000200000015
:10B7800002000000099F0000000400020500000004
:10B7900002000000020000000B9F000000040002F5
:10B7A00004000000000000002E0000000D9F0000BB
:10B7B0000004000205000000000000000500000079
:10B7C0000E9F0000000400020500000000000000C1
:10B7D000050000000F9F00000004000205000000AB
:10B7E0000000000005000000109F0000000400029F
:10B7F000050000000000000020000000119F000074
:10B80000000400020500000001000000010000002B
:10B81000139F000000040002050000000200000069
:10B8200002000000149F0000000400020500000058
:10B830000100000001000000159F0000000400014D
:10B84000010000000200000002000000169F00003E
:10B8500000040001040000000F0000000F000000C1
:10B86000179F000000040002050000000100000016
:10B87000010000001A9F0000000400020100000007
:10B8800002000000020000001B9F000000040002F4
:10B890000500000004000000040000001C9F0000E0
:10B8A0000004000103000000080000000800000080
:10B8B0001D9F0000000400020500000001000000C0
:10B8C000080000001E9F00000004000203000000AA
:10B8D00008000000080000001F9F00000004000294
:10B8E0000400000000000000E7030000219F0000AA
:10B8F000000400010100000003000000030000003C
:10B90000229F00000004000205000000010000006A
:10B9100001000000239F0000000400020500000059
:10B920000100000001000000269F0000000400024A
:10B93000050000000800000008000000279F00002C
:10B9400000040002050000000100000001000000EA
:10B950002D9F000000040002050000000000000010
:10B96000E70300002F9F0000000400020500000014
:10B9700000000000E7030000329F00000002000208
:10B98000050000000100000003000000339F0000DC
:10B990000004000105000000030000000300000097
:10B9A000349F0000000400010500000003000000B7
:10B9B00003000000359F00000004000105000000A6
:10B9C0000100000001000000369F0000000400029A
:10B9D000050000000200000002000000379F000088
:10B9E0000004000105000000040000000400000045
:10B9F000389F000000040002050000000000000065
:10BA0000E7030000399F000000040001010000006E
:10BA100001000000010000003A9F00000004000245
:10BA20000500000004000000040000003B9F00002F
:10BA300000040002010000000200000008000000F5
:10BA40003C9F000000040002010000000200000012
:10BA5000020000003D9F0000000400020100000001
:10BA60000100000001000000409F000000040002EF
:10BA7000050000000500000005000000419F0000D7
:10BA800000040001050000000400000004000000A4
:10BA9000429F0000000400020100000002000000BC
:10BAA00002000000439F00000004000201000000AB
:10BAB0000100000004000000449F00000004000298
:10BAC000010000000100000001000000459F00008F
:10BAD0000004000205000000020000000200000057
:10BAE000469F000000040002050000000000000066
:10BAF000E7030000489F000000040002050000006A
:10BB000000000000E7030000499F0000000400025D
:10BB10000500000000000000FC0000004A9F00003B
:10BB2000000400020500000000000000E703000020
:10BB30004B9F000000040002050000000000000010
:10BB4000E70300004C9F0000000400020500000015
:10BB500002000000080000004D9F000000040002E9
:10BB60000500000000000000030000004E9F0000E0
:10BB7000000400010400000000000000400000007C
:10BB80004200000010000000000000000000000063
:10BB90000000000050000000100000000000000045
:10BBA000000000000000000057000000130000002B
:10BBB0000000000000000000000000005A0000002B
:10BBC0000A0000000000000000000000000000006B
:10BBD000205F00001A0000000000000000000000CC
:10BBE00000000000245F00000300000000000000CF
:10BBF0000000000000000000255F000003000000BE
:10BC0000000000000000000000000000285F0000AD
:10BC10000200000000000000000000000000000022
:10BC20002A5F000008000000000000000000000083
:10BC3000000000002D5F0000080000000000000070
:10BC40000000000000000000305F00000300000062
:10BC5000000000000000000000000000345F000051
:10BC600003000000000000000000000000000000D1
:10BC7000365F00000100000000000000000000002E
:10BC80000000000082000000020000000000000030
:10BC90000000000000000000840000001000000010
:10BCA000000000000000000000000000870000000D
:10BCB0000100000000000000000000000000000083
:10BCC0008A000000020000000000000000000000E8
:10BCD000000000008C000000FC00000000000000DC
:10BCE00000000000000000008D000000FC000000CB
:10BCF0000000000000000000000000008E000000B6
:10BD0000FC00000000000000000000000000000037
:10BD10008F00000001000000000000000000000093
:10BD20000000000090000000FC0000000000000087
:10BD3000000000000000000092000000FC00000075
:10BD40000000000000000000000000009300000060
:10BD5000FC000000000000000000000000000000E7
:10BD600094000000FC000000000000000000000043
:10BD70000000000095000000050000000000000029
:10BD8000000000000000000097000000FC00000020
:10BD90000000000000000000000000009A00000009
:10BDA0000300000000000000000000000000000090
:10BDB0009B000000020000000000000000000000E6
:10BDC000000000009C0000000100000000000000D6
:10BDD0000000000000000000029F000006000000BC
:10BDE000000000000000000000000000039F0000B1
:10BDF000060000000000000000000000000000003D
:10BE0000079F00000200000000000000000000008A
:10BE100000000000089F0000020000000000000079
:10BE20000000000000000000099F00000200000068
:10BE30000000000000000000000000000B9F000058
:10BE40002D000000000000000000000000000000C5
:10BE50000D9F000005000000000000000000000031
:10BE6000000000000E9F0000050000000000000020
:10BE700000000000000000000F9F0000050000000F
:10BE8000000000000000000000000000109F000003
:10BE90002000000000000000000000000000000082
:10BEA000119F0000010000000000000000000000E1
:10BEB00000000000129F00001000000000000000C1
:10BEC0000000000000000000139F000002000000BE
:10BED000000000000000000000000000149F0000AF
:10BEE0000100000000000000000000000000000051
:10BEF000159F00000200000000000000000000008C
:10BF0000000000001A9F0000020000000000000076
:10BF100000000000000000001B9F00000400000063
:10BF20000000000000000000000000001F9F000053
:10BF30006B00000000000000000000000000000096
:10BF4000219F00000300000000000000000000002E
:10BF500000000000239F000001000000000000001E
:10BF60000000000000000000269F00000800000004
:10BF7000000000000000000000000000279F0000FB
:10BF800002000000000000000000000000000000AF
:10BF9000329F0000030000000000000000000000CD
:10BFA00000000000339F00000300000000000000BC
:10BFB0000000000000000000349F000003000000AB
:10BFC000000000000000000000000000359F00009D
:10BFD0000100000000000000000000000000000060
:10BFE000369F00000200000000000000000000007A
:10BFF00000000000379F0000040000000000000067
:10C000000000000000000000389F00000001000058
:10C010000000000000000000000000003B9F000046
:10C02000030000000000000000000000000000000D
:10C03000429F00000200000000000000000000001D
:10C0400000000000439F000001000000000000000D
:10C050000000000000000000449F000001000000FC
:10C06000000000000000000000000000459F0000EC
:10C0700002000000000000000000000000000000BE
:10C08000469F0000FC0000000000000000000000CF
:10C0900000000000479F00000300000000000000B7
:10C0A0000000000000000000489F0000FC000000AD
:10C0B000000000000000000000000000499F000098
:10C0C000FC00000000000000000000000000000074
:10C0D0004A9F000004000000000000000000000073
:10C0E000000000004B9F0000000100000000000065
:10C0F00000000000000000004E9F00004000000013
:10C10000000000000000000000000000509F000040
:10C11000030000000000000000000000000000001C
:10C120005A9F00000800000000000000000000000E
:10C13000000000005B9F00002000000000000000E5
:10C140000000000000000000709F000002000000DE
:10C15000000000000000000000000000719F0000CF
:10C1600003000000000000000000000000000000CC
:10C170006D9F0000010000000000000000000000B2
:10C18000000000006E9F000004000000000000009E
:10C19000000000000000000001829F000401000078
:10C1A00000000000000000000000000017829F0057
:10C1B000020000000000000000000000000000007D
:10C1C00018829F0001000000000000000000000035
:10C1D0000000000008829F00060000000000000030
:10C1E000000000000000000009829F00060000001F
:10C1F0000000000000000000000000000A829F0014
:10C200000600000000000000000000000000000028
:10C210002A819F00050000000000000000000000CF
:10C22000000000002B819F000500000000000000BE
:10C2300000000000000000002C819F0005000000AD
:10C2400000000000000000000000000027819F00A7
:10C2500001000000000000000000000000000000DD
:10C2600028819F0001000000000000000000000085
:10C270000000000029819F00040000000000000071
:10C2800000000000000000000B829F000100000081
:10C290000000000000000000000000000182DF003C
:10C2A000000100000000000000000000000000008D
:10C2B0000282DF0003000000000000000000000018
:10C2C0000000000030819F0000010000000000001D
:10C2D000000000000000000031819F00000100000C
:10C2E00000000000000000000000000010829F001D
:10C2F000000100000000000000000000000000003D
:10C3000011829F00000100000000000000000000FA
:10C310000000000013829F00800000000000000069
:10C32000000000000000000001839F0001000000E9
:10C3300000000000000000000000000021829F00BB
:10C340007800000000000000000000000000000075
:10C3500022829F0028000000000000000000000072
:10C360000000000040829F0001000000000000006B
:10C37000000000000000000041829F00010000005A
:10C3800000000000000000000000000042829F004A
:10C39000010000000000000000000000000000009C
:10C3A00043829F0001000000000000000000000028
:10C3B0000000000044829F00010000000000000017
:10C3C000000000000000000045829F000100000006
:10C3D00000000000000000000000000046829F00F6
:10C3E000010000000000000000000000000000004C
:10C3F00047829F00010000000000000000000000D4
:10C400000000000048829F000100000000000000C2
:10C41000000000000000000049829F0001000000B1
:10C42000000000000000000000000000000000000C
:10C4300000000000000000000000000000000000FC
:10C44000029F0000039F0000255F0000245F0000A2
:10C45000345F00005A000000089F00008C000000BC
:10C46000205F00000D9F00000E9F00000F9F000046
:10C47000285F00001A9F0000950000005700000090
:10C4800021829F0022829F002A5F00009A00000004
:10C49000219F00009C000000379F00008A000000E0
:10C4A0004E9F0000159F0000069F0000269F000081
:10C4B000279F0000339F0000349F0000359F00003D
:10C4C000369F000082000000109F00000A9F0000BD
:10C4D000249F0000199F0000259F00008400000099
:10C4E000119F00008E0000001E9F000057000000FA
:10C4F00095000000349F0000539F000021829F00A0
:10C5000022829F0024C50A10000400202C00000095
:10C51000A8450A1050C50A102C0400209C460000B3
:10C52000C4450A10000000000000000000000000E8
:10C5300000000000000000000000000000000000FB
:10C5400000000000000000000000000000000000EB
:04000005100A456D2B
:00000001FF
